{
  "contractName": "Dron_Company",
  "abi": [
    {
      "inputs": [],
      "stateMutability": "nonpayable",
      "type": "constructor"
    },
    {
      "anonymous": false,
      "inputs": [
        {
          "indexed": false,
          "internalType": "uint256",
          "name": "id_dron",
          "type": "uint256"
        },
        {
          "indexed": false,
          "internalType": "uint256",
          "name": "id_plot",
          "type": "uint256"
        }
      ],
      "name": "ContrataDronFumigador",
      "type": "event"
    },
    {
      "anonymous": false,
      "inputs": [
        {
          "indexed": false,
          "internalType": "address",
          "name": "buyer",
          "type": "address"
        },
        {
          "indexed": false,
          "internalType": "uint256",
          "name": "amount",
          "type": "uint256"
        }
      ],
      "name": "Sold",
      "type": "event"
    },
    {
      "inputs": [],
      "name": "id_dron",
      "outputs": [
        {
          "internalType": "uint256",
          "name": "",
          "type": "uint256"
        }
      ],
      "stateMutability": "view",
      "type": "function"
    },
    {
      "inputs": [],
      "name": "id_plot",
      "outputs": [
        {
          "internalType": "uint256",
          "name": "",
          "type": "uint256"
        }
      ],
      "stateMutability": "view",
      "type": "function"
    },
    {
      "inputs": [],
      "name": "n_trabajos",
      "outputs": [
        {
          "internalType": "uint256",
          "name": "",
          "type": "uint256"
        }
      ],
      "stateMutability": "view",
      "type": "function"
    },
    {
      "inputs": [
        {
          "internalType": "uint256",
          "name": "a",
          "type": "uint256"
        },
        {
          "internalType": "uint256",
          "name": "b",
          "type": "uint256"
        }
      ],
      "name": "safeAdd",
      "outputs": [
        {
          "internalType": "uint256",
          "name": "c",
          "type": "uint256"
        }
      ],
      "stateMutability": "pure",
      "type": "function"
    },
    {
      "inputs": [
        {
          "internalType": "uint256",
          "name": "a",
          "type": "uint256"
        },
        {
          "internalType": "uint256",
          "name": "b",
          "type": "uint256"
        }
      ],
      "name": "safeDiv",
      "outputs": [
        {
          "internalType": "uint256",
          "name": "c",
          "type": "uint256"
        }
      ],
      "stateMutability": "pure",
      "type": "function"
    },
    {
      "inputs": [
        {
          "internalType": "uint256",
          "name": "a",
          "type": "uint256"
        },
        {
          "internalType": "uint256",
          "name": "b",
          "type": "uint256"
        }
      ],
      "name": "safeMul",
      "outputs": [
        {
          "internalType": "uint256",
          "name": "c",
          "type": "uint256"
        }
      ],
      "stateMutability": "pure",
      "type": "function"
    },
    {
      "inputs": [
        {
          "internalType": "uint256",
          "name": "a",
          "type": "uint256"
        },
        {
          "internalType": "uint256",
          "name": "b",
          "type": "uint256"
        }
      ],
      "name": "safeSub",
      "outputs": [
        {
          "internalType": "uint256",
          "name": "c",
          "type": "uint256"
        }
      ],
      "stateMutability": "pure",
      "type": "function"
    },
    {
      "inputs": [
        {
          "internalType": "uint256",
          "name": "maxheight",
          "type": "uint256"
        },
        {
          "internalType": "uint256",
          "name": "minheight",
          "type": "uint256"
        },
        {
          "internalType": "uint256",
          "name": "cost",
          "type": "uint256"
        }
      ],
      "name": "registraDron",
      "outputs": [
        {
          "internalType": "bool",
          "name": "success",
          "type": "bool"
        }
      ],
      "stateMutability": "nonpayable",
      "type": "function"
    },
    {
      "inputs": [
        {
          "internalType": "uint256",
          "name": "maxheight",
          "type": "uint256"
        },
        {
          "internalType": "uint256",
          "name": "minheight",
          "type": "uint256"
        },
        {
          "internalType": "string",
          "name": "_pesticide",
          "type": "string"
        }
      ],
      "name": "registraPlot",
      "outputs": [
        {
          "internalType": "bool",
          "name": "success",
          "type": "bool"
        }
      ],
      "stateMutability": "nonpayable",
      "type": "function"
    },
    {
      "inputs": [],
      "name": "getDronesDisponibles",
      "outputs": [
        {
          "internalType": "uint256[]",
          "name": "",
          "type": "uint256[]"
        }
      ],
      "stateMutability": "view",
      "type": "function"
    },
    {
      "inputs": [
        {
          "internalType": "uint256",
          "name": "iddron",
          "type": "uint256"
        },
        {
          "internalType": "uint256",
          "name": "idplot",
          "type": "uint256"
        }
      ],
      "name": "ContrataDron",
      "outputs": [
        {
          "internalType": "bool",
          "name": "success",
          "type": "bool"
        }
      ],
      "stateMutability": "payable",
      "type": "function"
    },
    {
      "inputs": [
        {
          "internalType": "uint256",
          "name": "iddron",
          "type": "uint256"
        },
        {
          "internalType": "uint256",
          "name": "idplot",
          "type": "uint256"
        }
      ],
      "name": "aceptaTrabajos",
      "outputs": [],
      "stateMutability": "nonpayable",
      "type": "function"
    },
    {
      "inputs": [],
      "name": "getTrabajosDisponibles",
      "outputs": [
        {
          "internalType": "uint256[]",
          "name": "",
          "type": "uint256[]"
        }
      ],
      "stateMutability": "view",
      "type": "function"
    },
    {
      "inputs": [
        {
          "internalType": "uint256",
          "name": "_amount",
          "type": "uint256"
        }
      ],
      "name": "buyTokens",
      "outputs": [
        {
          "internalType": "bool",
          "name": "success",
          "type": "bool"
        }
      ],
      "stateMutability": "payable",
      "type": "function"
    },
    {
      "inputs": [
        {
          "internalType": "address",
          "name": "dir",
          "type": "address"
        }
      ],
      "name": "getBalanceOf",
      "outputs": [
        {
          "internalType": "uint256",
          "name": "",
          "type": "uint256"
        }
      ],
      "stateMutability": "view",
      "type": "function"
    },
    {
      "inputs": [],
      "name": "get_idDron",
      "outputs": [
        {
          "internalType": "uint256",
          "name": "",
          "type": "uint256"
        }
      ],
      "stateMutability": "view",
      "type": "function"
    },
    {
      "inputs": [],
      "name": "get_idPlot",
      "outputs": [
        {
          "internalType": "uint256",
          "name": "",
          "type": "uint256"
        }
      ],
      "stateMutability": "view",
      "type": "function"
    },
    {
      "inputs": [
        {
          "internalType": "uint256",
          "name": "iddron",
          "type": "uint256"
        }
      ],
      "name": "getCost",
      "outputs": [
        {
          "internalType": "uint256",
          "name": "",
          "type": "uint256"
        }
      ],
      "stateMutability": "view",
      "type": "function"
    },
    {
      "inputs": [
        {
          "internalType": "uint256",
          "name": "iddron",
          "type": "uint256"
        }
      ],
      "name": "getMaxHeight",
      "outputs": [
        {
          "internalType": "uint256",
          "name": "",
          "type": "uint256"
        }
      ],
      "stateMutability": "view",
      "type": "function"
    },
    {
      "inputs": [
        {
          "internalType": "uint256",
          "name": "iddron",
          "type": "uint256"
        }
      ],
      "name": "getMinHeight",
      "outputs": [
        {
          "internalType": "uint256",
          "name": "",
          "type": "uint256"
        }
      ],
      "stateMutability": "view",
      "type": "function"
    }
  ],
  "bytecode": "0x60806040523480156200001157600080fd5b5033600360006101000a81548173ffffffffffffffffffffffffffffffffffffffff021916908373ffffffffffffffffffffffffffffffffffffffff1602179055506040516200006190620000d4565b604051809103906000f0801580156200007e573d6000803e3d6000fd5b50600760006101000a81548173ffffffffffffffffffffffffffffffffffffffff021916908373ffffffffffffffffffffffffffffffffffffffff160217905550600080819055506000600181905550620000e2565b6112f78062005fc383390190565b615ed180620000f26000396000f3fe6080604052600436106200013a5760003560e01c8063a293d1e811620000af578063ce308132116200006d578063ce30813214620004b9578063d05c78da14620004e9578063d3838f52146200052d578063e6cb9013146200055d578063e7bcebf014620005a1576200013a565b8063a293d1e81462000387578063b5931f7c14620003cb578063b6ac6de5146200040f578063b90589471462000445578063cac43eb41462000475576200013a565b80635792c58411620000fd5780635792c584146200025b5780635959c1ec146200029f5780635a4dd47d14620002cf5780635ee1773d14620003135780639b96eece1462000343576200013a565b80630aefd3a9146200013f5780630c8946dc14620001835780631574021414620001c75780633610724e14620001f557806346c12c47146200022b575b600080fd5b3480156200014c57600080fd5b506200016b60048036038101906200016591906200215e565b620005d1565b6040516200017a9190620021d7565b60405180910390f35b3480156200019057600080fd5b50620001af6004803603810190620001a99190620021f4565b6200073c565b604051620001be919062002237565b60405180910390f35b348015620001d457600080fd5b50620001f36004803603810190620001ed919062002254565b620007ea565b005b6200021360048036038101906200020d9190620021f4565b62000b2d565b604051620002229190620021d7565b60405180910390f35b3480156200023857600080fd5b506200024362000d0a565b60405162000252919062002369565b60405180910390f35b3480156200026857600080fd5b50620002876004803603810190620002819190620024ef565b62000ed3565b604051620002969190620021d7565b60405180910390f35b348015620002ac57600080fd5b50620002b7620011a0565b604051620002c6919062002237565b60405180910390f35b348015620002dc57600080fd5b50620002fb6004803603810190620002f59190620021f4565b620011a6565b6040516200030a919062002237565b60405180910390f35b3480156200032057600080fd5b506200032b62001254565b6040516200033a919062002237565b60405180910390f35b3480156200035057600080fd5b506200036f6004803603810190620003699190620025cf565b6200125a565b6040516200037e919062002237565b60405180910390f35b3480156200039457600080fd5b50620003b36004803603810190620003ad919062002254565b62001304565b604051620003c2919062002237565b60405180910390f35b348015620003d857600080fd5b50620003f76004803603810190620003f1919062002254565b6200132a565b60405162000406919062002237565b60405180910390f35b6200042d600480360381019062000427919062002254565b6200134f565b6040516200043c9190620021d7565b60405180910390f35b3480156200045257600080fd5b506200045d62001e08565b6040516200046c919062002237565b60405180910390f35b3480156200048257600080fd5b50620004a160048036038101906200049b9190620021f4565b62001e11565b604051620004b0919062002237565b60405180910390f35b348015620004c657600080fd5b50620004d162001ebf565b604051620004e0919062002237565b60405180910390f35b348015620004f657600080fd5b506200051560048036038101906200050f919062002254565b62001ec9565b60405162000524919062002237565b60405180910390f35b3480156200053a57600080fd5b506200054562001f07565b60405162000554919062002369565b60405180910390f35b3480156200056a57600080fd5b5062000589600480360381019062000583919062002254565b6200206a565b60405162000598919062002237565b60405180910390f35b348015620005ae57600080fd5b50620005b962002090565b604051620005c8919062002237565b60405180910390f35b6000828411620005e057600080fd5b60008211620005ee57600080fd5b60008411620005fc57600080fd5b600083116200060a57600080fd5b60016000808282546200061e919062002630565b9250508190555060008484846000546040516200063b90620020f3565b6200064a94939291906200268d565b604051809103906000f08015801562000667573d6000803e3d6000fd5b50905080600460008054815260200190815260200160002060006101000a81548173ffffffffffffffffffffffffffffffffffffffff021916908373ffffffffffffffffffffffffffffffffffffffff1602179055508073ffffffffffffffffffffffffffffffffffffffff1663e2fb9893336000546040518363ffffffff1660e01b8152600401620006fc929190620026eb565b600060405180830381600087803b1580156200071757600080fd5b505af11580156200072c573d6000803e3d6000fd5b5050505060019150509392505050565b60006004600083815260200190815260200160002060009054906101000a900473ffffffffffffffffffffffffffffffffffffffff1673ffffffffffffffffffffffffffffffffffffffff1663cf22b5776040518163ffffffff1660e01b8152600401602060405180830381865afa158015620007bd573d6000803e3d6000fd5b505050506040513d601f19601f82011682018060405250810190620007e391906200272f565b9050919050565b60008214158015620007fd575060008114155b6200080757600080fd5b6004600083815260200190815260200160002060009054906101000a900473ffffffffffffffffffffffffffffffffffffffff1673ffffffffffffffffffffffffffffffffffffffff16636352211e836040518263ffffffff1660e01b815260040162000875919062002237565b602060405180830381865afa15801562000893573d6000803e3d6000fd5b505050506040513d601f19601f82011682018060405250810190620008b9919062002778565b73ffffffffffffffffffffffffffffffffffffffff163373ffffffffffffffffffffffffffffffffffffffff1614620008f157600080fd5b816006600083815260200190815260200160002054146200091157600080fd5b6004600083815260200190815260200160002060009054906101000a900473ffffffffffffffffffffffffffffffffffffffff1673ffffffffffffffffffffffffffffffffffffffff16631e7ec0f3826040518263ffffffff1660e01b81526004016200097f919062002237565b600060405180830381600087803b1580156200099a57600080fd5b505af1158015620009af573d6000803e3d6000fd5b505050506005600082815260200190815260200160002060009054906101000a900473ffffffffffffffffffffffffffffffffffffffff1673ffffffffffffffffffffffffffffffffffffffff16634a627aeb60016040518263ffffffff1660e01b815260040162000a229190620021d7565b600060405180830381600087803b15801562000a3d57600080fd5b505af115801562000a52573d6000803e3d6000fd5b505050506004600083815260200190815260200160002060009054906101000a900473ffffffffffffffffffffffffffffffffffffffff1673ffffffffffffffffffffffffffffffffffffffff16632b81ff9560016040518263ffffffff1660e01b815260040162000ac59190620021d7565b600060405180830381600087803b15801562000ae057600080fd5b505af115801562000af5573d6000803e3d6000fd5b5050505060006006600083815260200190815260200160002081905550600160025462000b239190620027aa565b6002819055505050565b600062000b3d826103e862001ec9565b341162000b4957600080fd5b600062000b66836012600a62000b60919062002946565b62001ec9565b905080600760009054906101000a900473ffffffffffffffffffffffffffffffffffffffff1673ffffffffffffffffffffffffffffffffffffffff166370a08231306040518263ffffffff1660e01b815260040162000bc6919062002997565b602060405180830381865afa15801562000be4573d6000803e3d6000fd5b505050506040513d601f19601f8201168201806040525081019062000c0a91906200272f565b101562000c1657600080fd5b600760009054906101000a900473ffffffffffffffffffffffffffffffffffffffff1673ffffffffffffffffffffffffffffffffffffffff1663a9059cbb33836040518363ffffffff1660e01b815260040162000c75929190620026eb565b6020604051808303816000875af115801562000c95573d6000803e3d6000fd5b505050506040513d601f19601f8201168201806040525081019062000cbb9190620029e5565b62000cc557600080fd5b7fae92ab4b6f8f401ead768d3273e6bb937a13e39827d19c6376e8fd4512a05d9a338260405162000cf8929190620026eb565b60405180910390a16001915050919050565b6060600060025467ffffffffffffffff81111562000d2d5762000d2c620023a8565b5b60405190808252806020026020018201604052801562000d5c5781602001602082028036833780820191505090505b509050600080600190505b600254811162000eca576000600660008381526020019081526020016000205490506000811462000eb35760006004600083815260200190815260200160002060009054906101000a900473ffffffffffffffffffffffffffffffffffffffff1673ffffffffffffffffffffffffffffffffffffffff16636352211e836040518263ffffffff1660e01b815260040162000e02919062002237565b602060405180830381865afa15801562000e20573d6000803e3d6000fd5b505050506040513d601f19601f8201168201806040525081019062000e46919062002778565b90503373ffffffffffffffffffffffffffffffffffffffff168173ffffffffffffffffffffffffffffffffffffffff16141562000eb1578285858151811062000e945762000e9362002a17565b5b602002602001018181525050838062000ead9062002a46565b9450505b505b50808062000ec19062002a46565b91505062000d67565b50819250505090565b600082841162000ee257600080fd5b6000841162000ef057600080fd5b6000831162000efe57600080fd5b62000f3f826040518060400160405280600b81526020017f506573746963696461204100000000000000000000000000000000000000000081525062002096565b8062000f88575062000f87826040518060400160405280600b81526020017f506573746963696461204200000000000000000000000000000000000000000081525062002096565b5b8062000fd1575062000fd0826040518060400160405280600b81526020017f506573746963696461204300000000000000000000000000000000000000000081525062002096565b5b806200101a575062001019826040518060400160405280600b81526020017f506573746963696461204400000000000000000000000000000000000000000081525062002096565b5b8062001063575062001062826040518060400160405280600b81526020017f506573746963696461204500000000000000000000000000000000000000000081525062002096565b5b6200106d57600080fd5b600180600082825462001081919062002630565b9250508190555060008484600154856040516200109e9062002101565b620010ad949392919062002b27565b604051809103906000f080158015620010ca573d6000803e3d6000fd5b5090508060056000600154815260200190815260200160002060006101000a81548173ffffffffffffffffffffffffffffffffffffffff021916908373ffffffffffffffffffffffffffffffffffffffff1602179055508073ffffffffffffffffffffffffffffffffffffffff16637194c2e8336001546040518363ffffffff1660e01b815260040162001160929190620026eb565b600060405180830381600087803b1580156200117b57600080fd5b505af115801562001190573d6000803e3d6000fd5b5050505060019150509392505050565b60025481565b60006004600083815260200190815260200160002060009054906101000a900473ffffffffffffffffffffffffffffffffffffffff1673ffffffffffffffffffffffffffffffffffffffff1663bd3e19d46040518163ffffffff1660e01b8152600401602060405180830381865afa15801562001227573d6000803e3d6000fd5b505050506040513d601f19601f820116820180604052508101906200124d91906200272f565b9050919050565b60015481565b6000600760009054906101000a900473ffffffffffffffffffffffffffffffffffffffff1673ffffffffffffffffffffffffffffffffffffffff166370a08231836040518263ffffffff1660e01b8152600401620012b9919062002997565b602060405180830381865afa158015620012d7573d6000803e3d6000fd5b505050506040513d601f19601f82011682018060405250810190620012fd91906200272f565b9050919050565b6000828211156200131457600080fd5b8183620013229190620027aa565b905092915050565b60008082116200133957600080fd5b818362001347919062002baa565b905092915050565b600080831415801562001363575060008214155b620013a5576040517f08c379a00000000000000000000000000000000000000000000000000000000081526004016200139c9062002c32565b60405180910390fd5b60006004600085815260200190815260200160002060009054906101000a900473ffffffffffffffffffffffffffffffffffffffff1673ffffffffffffffffffffffffffffffffffffffff16636352211e856040518263ffffffff1660e01b815260040162001415919062002237565b602060405180830381865afa15801562001433573d6000803e3d6000fd5b505050506040513d601f19601f8201168201806040525081019062001459919062002778565b905060006005600085815260200190815260200160002060009054906101000a900473ffffffffffffffffffffffffffffffffffffffff1673ffffffffffffffffffffffffffffffffffffffff16636352211e856040518263ffffffff1660e01b8152600401620014cb919062002237565b602060405180830381865afa158015620014e9573d6000803e3d6000fd5b505050506040513d601f19601f820116820180604052508101906200150f919062002778565b90508073ffffffffffffffffffffffffffffffffffffffff163373ffffffffffffffffffffffffffffffffffffffff161462001582576040517f08c379a0000000000000000000000000000000000000000000000000000000008152600401620015799062002ca4565b60405180910390fd5b6004600086815260200190815260200160002060009054906101000a900473ffffffffffffffffffffffffffffffffffffffff1673ffffffffffffffffffffffffffffffffffffffff1663cf22b5776040518163ffffffff1660e01b8152600401602060405180830381865afa15801562001601573d6000803e3d6000fd5b505050506040513d601f19601f820116820180604052508101906200162791906200272f565b6005600086815260200190815260200160002060009054906101000a900473ffffffffffffffffffffffffffffffffffffffff1673ffffffffffffffffffffffffffffffffffffffff1663cf22b5776040518163ffffffff1660e01b8152600401602060405180830381865afa158015620016a6573d6000803e3d6000fd5b505050506040513d601f19601f82011682018060405250810190620016cc91906200272f565b101562001710576040517f08c379a0000000000000000000000000000000000000000000000000000000008152600401620017079062002d16565b60405180910390fd5b6004600086815260200190815260200160002060009054906101000a900473ffffffffffffffffffffffffffffffffffffffff1673ffffffffffffffffffffffffffffffffffffffff166349befa856040518163ffffffff1660e01b8152600401602060405180830381865afa1580156200178f573d6000803e3d6000fd5b505050506040513d601f19601f82011682018060405250810190620017b591906200272f565b6005600086815260200190815260200160002060009054906101000a900473ffffffffffffffffffffffffffffffffffffffff1673ffffffffffffffffffffffffffffffffffffffff166349befa856040518163ffffffff1660e01b8152600401602060405180830381865afa15801562001834573d6000803e3d6000fd5b505050506040513d601f19601f820116820180604052508101906200185a91906200272f565b11156200189e576040517f08c379a0000000000000000000000000000000000000000000000000000000008152600401620018959062002d88565b60405180910390fd5b6005600085815260200190815260200160002060009054906101000a900473ffffffffffffffffffffffffffffffffffffffff1673ffffffffffffffffffffffffffffffffffffffff16637cf6b53b6040518163ffffffff1660e01b8152600401602060405180830381865afa1580156200191d573d6000803e3d6000fd5b505050506040513d601f19601f82011682018060405250810190620019439190620029e5565b156200194e57600080fd5b6004600086815260200190815260200160002060009054906101000a900473ffffffffffffffffffffffffffffffffffffffff1673ffffffffffffffffffffffffffffffffffffffff1662fef8566040518163ffffffff1660e01b8152600401602060405180830381865afa158015620019cc573d6000803e3d6000fd5b505050506040513d601f19601f82011682018060405250810190620019f29190620029e5565b620019fc57600080fd5b60006004600087815260200190815260200160002060009054906101000a900473ffffffffffffffffffffffffffffffffffffffff1673ffffffffffffffffffffffffffffffffffffffff1663bd3e19d46040518163ffffffff1660e01b8152600401602060405180830381865afa15801562001a7d573d6000803e3d6000fd5b505050506040513d601f19601f8201168201806040525081019062001aa391906200272f565b905080600760009054906101000a900473ffffffffffffffffffffffffffffffffffffffff1673ffffffffffffffffffffffffffffffffffffffff166370a08231336040518263ffffffff1660e01b815260040162001b03919062002997565b602060405180830381865afa15801562001b21573d6000803e3d6000fd5b505050506040513d601f19601f8201168201806040525081019062001b4791906200272f565b101562001b5357600080fd5b600760009054906101000a900473ffffffffffffffffffffffffffffffffffffffff1673ffffffffffffffffffffffffffffffffffffffff1663095ea7b383836040518363ffffffff1660e01b815260040162001bb2929190620026eb565b6020604051808303816000875af115801562001bd2573d6000803e3d6000fd5b505050506040513d601f19601f8201168201806040525081019062001bf89190620029e5565b62001c0257600080fd5b600760009054906101000a900473ffffffffffffffffffffffffffffffffffffffff1673ffffffffffffffffffffffffffffffffffffffff166323b872dd8385846040518463ffffffff1660e01b815260040162001c639392919062002daa565b6020604051808303816000875af115801562001c83573d6000803e3d6000fd5b505050506040513d601f19601f8201168201806040525081019062001ca99190620029e5565b62001ceb576040517f08c379a000000000000000000000000000000000000000000000000000000000815260040162001ce29062002e37565b60405180910390fd5b6002600081548092919062001d009062002a46565b91905055508560066000878152602001908152602001600020819055506004600087815260200190815260200160002060009054906101000a900473ffffffffffffffffffffffffffffffffffffffff1673ffffffffffffffffffffffffffffffffffffffff16632b81ff9560006040518263ffffffff1660e01b815260040162001d8c9190620021d7565b600060405180830381600087803b15801562001da757600080fd5b505af115801562001dbc573d6000803e3d6000fd5b505050507fad6d0c0810a0bd7cfc65b4fa3f7e7ddea11a181fa6f2ce924480219dadb0d560868660405162001df392919062002e59565b60405180910390a16001935050505092915050565b60008054905090565b60006004600083815260200190815260200160002060009054906101000a900473ffffffffffffffffffffffffffffffffffffffff1673ffffffffffffffffffffffffffffffffffffffff166349befa856040518163ffffffff1660e01b8152600401602060405180830381865afa15801562001e92573d6000803e3d6000fd5b505050506040513d601f19601f8201168201806040525081019062001eb891906200272f565b9050919050565b6000600154905090565b6000818362001ed9919062002e86565b9050600083148062001ef7575081838262001ef5919062002baa565b145b62001f0157600080fd5b92915050565b60606000805467ffffffffffffffff81111562001f295762001f28620023a8565b5b60405190808252806020026020018201604052801562001f585781602001602082028036833780820191505090505b509050600080600190505b600054811162002061576004600082815260200190815260200160002060009054906101000a900473ffffffffffffffffffffffffffffffffffffffff1673ffffffffffffffffffffffffffffffffffffffff1662fef8566040518163ffffffff1660e01b8152600401602060405180830381865afa15801562001feb573d6000803e3d6000fd5b505050506040513d601f19601f82011682018060405250810190620020119190620029e5565b156200204b57808383815181106200202e576200202d62002a17565b5b6020026020010181815250508180620020479062002a46565b9250505b8080620020589062002a46565b91505062001f63565b50819250505090565b600081836200207a919062002630565b9050828110156200208a57600080fd5b92915050565b60005481565b600081604051602001620020ab919062002f29565b6040516020818303038152906040528051906020012083604051602001620020d4919062002f29565b6040516020818303038152906040528051906020012014905092915050565b61187a8062002f4383390190565b6116df80620047bd83390190565b6000604051905090565b600080fd5b600080fd5b6000819050919050565b620021388162002123565b81146200214457600080fd5b50565b60008135905062002158816200212d565b92915050565b6000806000606084860312156200217a576200217962002119565b5b60006200218a8682870162002147565b93505060206200219d8682870162002147565b9250506040620021b08682870162002147565b9150509250925092565b60008115159050919050565b620021d181620021ba565b82525050565b6000602082019050620021ee6000830184620021c6565b92915050565b6000602082840312156200220d576200220c62002119565b5b60006200221d8482850162002147565b91505092915050565b620022318162002123565b82525050565b60006020820190506200224e600083018462002226565b92915050565b600080604083850312156200226e576200226d62002119565b5b60006200227e8582860162002147565b9250506020620022918582860162002147565b9150509250929050565b600081519050919050565b600082825260208201905092915050565b6000819050602082019050919050565b620022d28162002123565b82525050565b6000620022e68383620022c7565b60208301905092915050565b6000602082019050919050565b60006200230c826200229b565b620023188185620022a6565b93506200232583620022b7565b8060005b838110156200235c578151620023408882620022d8565b97506200234d83620022f2565b92505060018101905062002329565b5085935050505092915050565b60006020820190508181036000830152620023858184620022ff565b905092915050565b600080fd5b600080fd5b6000601f19601f8301169050919050565b7f4e487b7100000000000000000000000000000000000000000000000000000000600052604160045260246000fd5b620023e28262002397565b810181811067ffffffffffffffff82111715620024045762002403620023a8565b5b80604052505050565b6000620024196200210f565b9050620024278282620023d7565b919050565b600067ffffffffffffffff8211156200244a5762002449620023a8565b5b620024558262002397565b9050602081019050919050565b82818337600083830152505050565b60006200248862002482846200242c565b6200240d565b905082815260208101848484011115620024a757620024a662002392565b5b620024b484828562002462565b509392505050565b600082601f830112620024d457620024d36200238d565b5b8135620024e684826020860162002471565b91505092915050565b6000806000606084860312156200250b576200250a62002119565b5b60006200251b8682870162002147565b93505060206200252e8682870162002147565b925050604084013567ffffffffffffffff8111156200255257620025516200211e565b5b6200256086828701620024bc565b9150509250925092565b600073ffffffffffffffffffffffffffffffffffffffff82169050919050565b600062002597826200256a565b9050919050565b620025a9816200258a565b8114620025b557600080fd5b50565b600081359050620025c9816200259e565b92915050565b600060208284031215620025e857620025e762002119565b5b6000620025f884828501620025b8565b91505092915050565b7f4e487b7100000000000000000000000000000000000000000000000000000000600052601160045260246000fd5b60006200263d8262002123565b91506200264a8362002123565b9250827fffffffffffffffffffffffffffffffffffffffffffffffffffffffffffffffff0382111562002682576200268162002601565b5b828201905092915050565b6000608082019050620026a4600083018762002226565b620026b3602083018662002226565b620026c2604083018562002226565b620026d1606083018462002226565b95945050505050565b620026e5816200258a565b82525050565b6000604082019050620027026000830185620026da565b62002711602083018462002226565b9392505050565b60008151905062002729816200212d565b92915050565b60006020828403121562002748576200274762002119565b5b6000620027588482850162002718565b91505092915050565b60008151905062002772816200259e565b92915050565b60006020828403121562002791576200279062002119565b5b6000620027a18482850162002761565b91505092915050565b6000620027b78262002123565b9150620027c48362002123565b925082821015620027da57620027d962002601565b5b828203905092915050565b60008160011c9050919050565b6000808291508390505b600185111562002844578086048111156200281c576200281b62002601565b5b60018516156200282c5780820291505b80810290506200283c85620027e5565b9450620027fc565b94509492505050565b6000826200285f576001905062002932565b816200286f576000905062002932565b81600181146200288857600281146200289357620028c9565b600191505062002932565b60ff841115620028a857620028a762002601565b5b8360020a915084821115620028c257620028c162002601565b5b5062002932565b5060208310610133831016604e8410600b8410161715620029035782820a905083811115620028fd57620028fc62002601565b5b62002932565b620029128484846001620027f2565b925090508184048111156200292c576200292b62002601565b5b81810290505b9392505050565b600060ff82169050919050565b6000620029538262002123565b9150620029608362002939565b92506200298f7fffffffffffffffffffffffffffffffffffffffffffffffffffffffffffffffff84846200284d565b905092915050565b6000602082019050620029ae6000830184620026da565b92915050565b620029bf81620021ba565b8114620029cb57600080fd5b50565b600081519050620029df81620029b4565b92915050565b600060208284031215620029fe57620029fd62002119565b5b600062002a0e84828501620029ce565b91505092915050565b7f4e487b7100000000000000000000000000000000000000000000000000000000600052603260045260246000fd5b600062002a538262002123565b91507fffffffffffffffffffffffffffffffffffffffffffffffffffffffffffffffff82141562002a895762002a8862002601565b5b600182019050919050565b600081519050919050565b600082825260208201905092915050565b60005b8381101562002ad057808201518184015260208101905062002ab3565b8381111562002ae0576000848401525b50505050565b600062002af38262002a94565b62002aff818562002a9f565b935062002b1181856020860162002ab0565b62002b1c8162002397565b840191505092915050565b600060808201905062002b3e600083018762002226565b62002b4d602083018662002226565b62002b5c604083018562002226565b818103606083015262002b70818462002ae6565b905095945050505050565b7f4e487b7100000000000000000000000000000000000000000000000000000000600052601260045260246000fd5b600062002bb78262002123565b915062002bc48362002123565b92508262002bd75762002bd662002b7b565b5b828204905092915050565b7f496e64696361646f72206e6f2076616c69646f00000000000000000000000000600082015250565b600062002c1a60138362002a9f565b915062002c278262002be2565b602082019050919050565b6000602082019050818103600083015262002c4d8162002c0b565b9050919050565b7f4e6f206572657320656c2070726f706965746172696f00000000000000000000600082015250565b600062002c8c60168362002a9f565b915062002c998262002c54565b602082019050919050565b6000602082019050818103600083015262002cbf8162002c7d565b9050919050565b7f416c74757261206d6178696d61206e6f2076616c696461000000000000000000600082015250565b600062002cfe60178362002a9f565b915062002d0b8262002cc6565b602082019050919050565b6000602082019050818103600083015262002d318162002cef565b9050919050565b7f416c74757261206d696e696d61206e6f2076616c696461000000000000000000600082015250565b600062002d7060178362002a9f565b915062002d7d8262002d38565b602082019050919050565b6000602082019050818103600083015262002da38162002d61565b9050919050565b600060608201905062002dc16000830186620026da565b62002dd06020830185620026da565b62002ddf604083018462002226565b949350505050565b7f4552524f5220414c205452414e53464552495200000000000000000000000000600082015250565b600062002e1f60138362002a9f565b915062002e2c8262002de7565b602082019050919050565b6000602082019050818103600083015262002e528162002e10565b9050919050565b600060408201905062002e70600083018562002226565b62002e7f602083018462002226565b9392505050565b600062002e938262002123565b915062002ea08362002123565b9250817fffffffffffffffffffffffffffffffffffffffffffffffffffffffffffffffff048311821515161562002edc5762002edb62002601565b5b828202905092915050565b600081905092915050565b600062002eff8262002a94565b62002f0b818562002ee7565b935062002f1d81856020860162002ab0565b80840191505092915050565b600062002f37828462002ef2565b91508190509291505056fe60806040523480156200001157600080fd5b506040516200187a3803806200187a8339818101604052810190620000379190620003c1565b836003819055508260048190555081600581905550806002819055506040518060a001604052806040518060400160405280600b81526020017f506573746963696461204100000000000000000000000000000000000000000081525081526020016040518060400160405280600b81526020017f506573746963696461204200000000000000000000000000000000000000000081525081526020016040518060400160405280600b81526020017f506573746963696461204300000000000000000000000000000000000000000081525081526020016040518060400160405280600b81526020017f506573746963696461204400000000000000000000000000000000000000000081525081526020016040518060400160405280600b81526020017f5065737469636964612045000000000000000000000000000000000000000000815250815250600690600562000195929190620001fc565b5033600760006101000a81548173ffffffffffffffffffffffffffffffffffffffff021916908373ffffffffffffffffffffffffffffffffffffffff1602179055506001600760146101000a81548160ff0219169083151502179055505050505062000498565b82805482825590600052602060002090810192821562000250579160200282015b828111156200024f5782518290805190602001906200023e92919062000263565b50916020019190600101906200021d565b5b5090506200025f9190620002f4565b5090565b828054620002719062000462565b90600052602060002090601f016020900481019282620002955760008555620002e1565b82601f10620002b057805160ff1916838001178555620002e1565b82800160010185558215620002e1579182015b82811115620002e0578251825591602001919060010190620002c3565b5b509050620002f091906200031c565b5090565b5b808211156200031857600081816200030e91906200033b565b50600101620002f5565b5090565b5b80821115620003375760008160009055506001016200031d565b5090565b508054620003499062000462565b6000825580601f106200035d57506200037e565b601f0160209004906000526020600020908101906200037d91906200031c565b5b50565b600080fd5b6000819050919050565b6200039b8162000386565b8114620003a757600080fd5b50565b600081519050620003bb8162000390565b92915050565b60008060008060808587031215620003de57620003dd62000381565b5b6000620003ee87828801620003aa565b94505060206200040187828801620003aa565b93505060406200041487828801620003aa565b92505060606200042787828801620003aa565b91505092959194509250565b7f4e487b7100000000000000000000000000000000000000000000000000000000600052602260045260246000fd5b600060028204905060018216806200047b57607f821691505b6020821081141562000492576200049162000433565b5b50919050565b6113d280620004a86000396000f3fe608060405234801561001057600080fd5b50600436106101155760003560e01c80636352211e116100a2578063b3e1c71811610071578063b3e1c718146102e2578063bd3e19d4146102fe578063cf22b5771461031c578063e2fb98931461033a578063e7bcebf01461035657610115565b80636352211e146102485780636a4f832b1461027857806370a08231146102945780638da5cb5b146102c457610115565b80631e7ec0f3116100e95780631e7ec0f3146101b65780632b81ff95146101d257806332b93996146101ee5780633fbaa4751461020c57806349befa851461022a57610115565b8062fef8561461011a57806301ffc9a71461013857806313faede614610168578063175f4eae14610186575b600080fd5b610122610374565b60405161012f9190610ac3565b60405180910390f35b610152600480360381019061014d9190610b4a565b61038b565b60405161015f9190610ac3565b60405180910390f35b6101706103f5565b60405161017d9190610b90565b60405180910390f35b6101a0600480360381019061019b9190610bd7565b6103fb565b6040516101ad9190610c9d565b60405180910390f35b6101d060048036038101906101cb9190610bd7565b6104a7565b005b6101ec60048036038101906101e79190610ceb565b61053b565b005b6101f6610558565b6040516102039190610b90565b60405180910390f35b61021461055e565b6040516102219190610b90565b60405180910390f35b610232610564565b60405161023f9190610b90565b60405180910390f35b610262600480360381019061025d9190610bd7565b61056e565b60405161026f9190610d59565b60405180910390f35b610292600480360381019061028d9190610ed5565b61061f565b005b6102ae60048036038101906102a99190610f44565b610644565b6040516102bb9190610b90565b60405180910390f35b6102cc61068d565b6040516102d99190610d59565b60405180910390f35b6102fc60048036038101906102f79190610f71565b6106b3565b005b6103066106d1565b6040516103139190610b90565b60405180910390f35b6103246106db565b6040516103319190610b90565b60405180910390f35b610354600480360381019061034f9190610f71565b6106e5565b005b61035e6106f3565b60405161036b9190610b90565b60405180910390f35b6000600760149054906101000a900460ff16905090565b60007f01ffc9a7000000000000000000000000000000000000000000000000000000007bffffffffffffffffffffffffffffffffffffffffffffffffffffffff1916827bffffffffffffffffffffffffffffffffffffffffffffffffffffffff1916149050919050565b60055481565b6006818154811061040b57600080fd5b90600052602060002001600091509050805461042690610fe0565b80601f016020809104026020016040519081016040528092919081815260200182805461045290610fe0565b801561049f5780601f106104745761010080835404028352916020019161049f565b820191906000526020600020905b81548152906001019060200180831161048257829003601f168201915b505050505081565b600760009054906101000a900473ffffffffffffffffffffffffffffffffffffffff1673ffffffffffffffffffffffffffffffffffffffff163373ffffffffffffffffffffffffffffffffffffffff161461050157600080fd5b7f127988bd735ffa5c5534fd889e7069d274b48e633535f314e203463f4ebf87a3816040516105309190610b90565b60405180910390a150565b80600760146101000a81548160ff02191690831515021790555050565b60045481565b60035481565b6000600454905090565b60008060008084815260200190815260200160002060009054906101000a900473ffffffffffffffffffffffffffffffffffffffff169050600073ffffffffffffffffffffffffffffffffffffffff168173ffffffffffffffffffffffffffffffffffffffff161415610616576040517f08c379a000000000000000000000000000000000000000000000000000000000815260040161060d9061105e565b60405180910390fd5b80915050919050565b61062983836106f9565b61063660008484846108b9565b61063f57600080fd5b505050565b6000600160008373ffffffffffffffffffffffffffffffffffffffff1673ffffffffffffffffffffffffffffffffffffffff168152602001908152602001600020549050919050565b600760009054906101000a900473ffffffffffffffffffffffffffffffffffffffff1681565b6106cd82826040518060200160405280600081525061061f565b5050565b6000600554905090565b6000600354905090565b6106ef82826106b3565b5050565b60025481565b600073ffffffffffffffffffffffffffffffffffffffff168273ffffffffffffffffffffffffffffffffffffffff161415610769576040517f08c379a0000000000000000000000000000000000000000000000000000000008152600401610760906110f0565b60405180910390fd5b61077281610a24565b156107b2576040517f08c379a00000000000000000000000000000000000000000000000000000000081526004016107a990611182565b60405180910390fd5b60018060008473ffffffffffffffffffffffffffffffffffffffff1673ffffffffffffffffffffffffffffffffffffffff168152602001908152602001600020600082825461080191906111d1565b925050819055508160008083815260200190815260200160002060006101000a81548173ffffffffffffffffffffffffffffffffffffffff021916908373ffffffffffffffffffffffffffffffffffffffff160217905550808273ffffffffffffffffffffffffffffffffffffffff16600073ffffffffffffffffffffffffffffffffffffffff167fddf252ad1be2c89b69c2b068fc378daa952ba7f163c4a11628f55a4df523b3ef60405160405180910390a45050565b60006108c484610a8f565b15610a17578373ffffffffffffffffffffffffffffffffffffffff1663150b7a02338786866040518563ffffffff1660e01b8152600401610908949392919061127c565b6020604051808303816000875af192505050801561094457506040513d601f19601f8201168201806040525081019061094191906112dd565b60015b6109c7573d8060008114610974576040519150601f19603f3d011682016040523d82523d6000602084013e610979565b606091505b506000815114156109bf576040517f08c379a00000000000000000000000000000000000000000000000000000000081526004016109b69061137c565b60405180910390fd5b805181602001fd5b63150b7a0260e01b7bffffffffffffffffffffffffffffffffffffffffffffffffffffffff1916817bffffffffffffffffffffffffffffffffffffffffffffffffffffffff191614915050610a1c565b600190505b949350505050565b60008073ffffffffffffffffffffffffffffffffffffffff1660008084815260200190815260200160002060009054906101000a900473ffffffffffffffffffffffffffffffffffffffff1673ffffffffffffffffffffffffffffffffffffffff1614159050919050565b600080823b905060008163ffffffff1611915050919050565b60008115159050919050565b610abd81610aa8565b82525050565b6000602082019050610ad86000830184610ab4565b92915050565b6000604051905090565b600080fd5b600080fd5b60007fffffffff0000000000000000000000000000000000000000000000000000000082169050919050565b610b2781610af2565b8114610b3257600080fd5b50565b600081359050610b4481610b1e565b92915050565b600060208284031215610b6057610b5f610ae8565b5b6000610b6e84828501610b35565b91505092915050565b6000819050919050565b610b8a81610b77565b82525050565b6000602082019050610ba56000830184610b81565b92915050565b610bb481610b77565b8114610bbf57600080fd5b50565b600081359050610bd181610bab565b92915050565b600060208284031215610bed57610bec610ae8565b5b6000610bfb84828501610bc2565b91505092915050565b600081519050919050565b600082825260208201905092915050565b60005b83811015610c3e578082015181840152602081019050610c23565b83811115610c4d576000848401525b50505050565b6000601f19601f8301169050919050565b6000610c6f82610c04565b610c798185610c0f565b9350610c89818560208601610c20565b610c9281610c53565b840191505092915050565b60006020820190508181036000830152610cb78184610c64565b905092915050565b610cc881610aa8565b8114610cd357600080fd5b50565b600081359050610ce581610cbf565b92915050565b600060208284031215610d0157610d00610ae8565b5b6000610d0f84828501610cd6565b91505092915050565b600073ffffffffffffffffffffffffffffffffffffffff82169050919050565b6000610d4382610d18565b9050919050565b610d5381610d38565b82525050565b6000602082019050610d6e6000830184610d4a565b92915050565b610d7d81610d38565b8114610d8857600080fd5b50565b600081359050610d9a81610d74565b92915050565b600080fd5b600080fd5b7f4e487b7100000000000000000000000000000000000000000000000000000000600052604160045260246000fd5b610de282610c53565b810181811067ffffffffffffffff82111715610e0157610e00610daa565b5b80604052505050565b6000610e14610ade565b9050610e208282610dd9565b919050565b600067ffffffffffffffff821115610e4057610e3f610daa565b5b610e4982610c53565b9050602081019050919050565b82818337600083830152505050565b6000610e78610e7384610e25565b610e0a565b905082815260208101848484011115610e9457610e93610da5565b5b610e9f848285610e56565b509392505050565b600082601f830112610ebc57610ebb610da0565b5b8135610ecc848260208601610e65565b91505092915050565b600080600060608486031215610eee57610eed610ae8565b5b6000610efc86828701610d8b565b9350506020610f0d86828701610bc2565b925050604084013567ffffffffffffffff811115610f2e57610f2d610aed565b5b610f3a86828701610ea7565b9150509250925092565b600060208284031215610f5a57610f59610ae8565b5b6000610f6884828501610d8b565b91505092915050565b60008060408385031215610f8857610f87610ae8565b5b6000610f9685828601610d8b565b9250506020610fa785828601610bc2565b9150509250929050565b7f4e487b7100000000000000000000000000000000000000000000000000000000600052602260045260246000fd5b60006002820490506001821680610ff857607f821691505b6020821081141561100c5761100b610fb1565b5b50919050565b7f546f6b656e20696420646f6573206e6f74206578697374000000000000000000600082015250565b6000611048601783610c0f565b915061105382611012565b602082019050919050565b600060208201905081810360008301526110778161103b565b9050919050565b7f455243373231204552524f523a206d696e7420746f20746865207a65726f206160008201527f6464726573730000000000000000000000000000000000000000000000000000602082015250565b60006110da602683610c0f565b91506110e58261107e565b604082019050919050565b60006020820190508181036000830152611109816110cd565b9050919050565b7f455243373231204552524f523a20546f6b656e20616c7265616479206d696e7460008201527f6564000000000000000000000000000000000000000000000000000000000000602082015250565b600061116c602283610c0f565b915061117782611110565b604082019050919050565b6000602082019050818103600083015261119b8161115f565b9050919050565b7f4e487b7100000000000000000000000000000000000000000000000000000000600052601160045260246000fd5b60006111dc82610b77565b91506111e783610b77565b9250827fffffffffffffffffffffffffffffffffffffffffffffffffffffffffffffffff0382111561121c5761121b6111a2565b5b828201905092915050565b600081519050919050565b600082825260208201905092915050565b600061124e82611227565b6112588185611232565b9350611268818560208601610c20565b61127181610c53565b840191505092915050565b60006080820190506112916000830187610d4a565b61129e6020830186610d4a565b6112ab6040830185610b81565b81810360608301526112bd8184611243565b905095945050505050565b6000815190506112d781610b1e565b92915050565b6000602082840312156112f3576112f2610ae8565b5b6000611301848285016112c8565b91505092915050565b7f4552433732313a207472616e7366657220746f206e6f6e20455243373231526560008201527f63656976657220696d706c656d656e7465720000000000000000000000000000602082015250565b6000611366603283610c0f565b91506113718261130a565b604082019050919050565b6000602082019050818103600083015261139581611359565b905091905056fea26469706673582212208226e82500a0ae2e0c2e3a4f9081877070d67f82898bd9d5a5562d52d5b5bd3e64736f6c634300080b003360806040523480156200001157600080fd5b50604051620016df380380620016df833981810160405281019062000037919062000353565b836003819055508260048190555033600560006101000a81548173ffffffffffffffffffffffffffffffffffffffff021916908373ffffffffffffffffffffffffffffffffffffffff160217905550816002819055508060069080519060200190620000a5929190620000cb565b506000600760006101000a81548160ff0219169083151502179055505050505062000449565b828054620000d99062000413565b90600052602060002090601f016020900481019282620000fd576000855562000149565b82601f106200011857805160ff191683800117855562000149565b8280016001018555821562000149579182015b82811115620001485782518255916020019190600101906200012b565b5b5090506200015891906200015c565b5090565b5b80821115620001775760008160009055506001016200015d565b5090565b6000604051905090565b600080fd5b600080fd5b6000819050919050565b620001a4816200018f565b8114620001b057600080fd5b50565b600081519050620001c48162000199565b92915050565b600080fd5b600080fd5b6000601f19601f8301169050919050565b7f4e487b7100000000000000000000000000000000000000000000000000000000600052604160045260246000fd5b6200021f82620001d4565b810181811067ffffffffffffffff82111715620002415762000240620001e5565b5b80604052505050565b6000620002566200017b565b905062000264828262000214565b919050565b600067ffffffffffffffff821115620002875762000286620001e5565b5b6200029282620001d4565b9050602081019050919050565b60005b83811015620002bf578082015181840152602081019050620002a2565b83811115620002cf576000848401525b50505050565b6000620002ec620002e68462000269565b6200024a565b9050828152602081018484840111156200030b576200030a620001cf565b5b620003188482856200029f565b509392505050565b600082601f830112620003385762000337620001ca565b5b81516200034a848260208601620002d5565b91505092915050565b6000806000806080858703121562000370576200036f62000185565b5b60006200038087828801620001b3565b94505060206200039387828801620001b3565b9350506040620003a687828801620001b3565b925050606085015167ffffffffffffffff811115620003ca57620003c96200018a565b5b620003d88782880162000320565b91505092959194509250565b7f4e487b7100000000000000000000000000000000000000000000000000000000600052602260045260246000fd5b600060028204905060018216806200042c57607f821691505b60208210811415620004435762000442620003e4565b5b50919050565b61128680620004596000396000f3fe608060405234801561001057600080fd5b50600436106100f55760003560e01c80636352211e116100975780637cf6b53b116100665780637cf6b53b146102745780638da5cb5b14610292578063b3e1c718146102b0578063cf22b577146102cc576100f5565b80636352211e146101dc5780636a4f832b1461020c57806370a08231146102285780637194c2e814610258576100f5565b80633fbaa475116100d35780633fbaa4751461016657806349befa85146101845780634a627aeb146101a25780635ee1773d146101be576100f5565b806301ffc9a7146100fa57806323b1ff001461012a57806332b9399614610148575b600080fd5b610114600480360381019061010f91906109c8565b6102ea565b6040516101219190610a10565b60405180910390f35b610132610354565b60405161013f9190610ac4565b60405180910390f35b6101506103e2565b60405161015d9190610aff565b60405180910390f35b61016e6103e8565b60405161017b9190610aff565b60405180910390f35b61018c6103ee565b6040516101999190610aff565b60405180910390f35b6101bc60048036038101906101b79190610b46565b6103f8565b005b6101c6610415565b6040516101d39190610aff565b60405180910390f35b6101f660048036038101906101f19190610b9f565b61041b565b6040516102039190610c0d565b60405180910390f35b61022660048036038101906102219190610d89565b6104cc565b005b610242600480360381019061023d9190610df8565b6104f1565b60405161024f9190610aff565b60405180910390f35b610272600480360381019061026d9190610e25565b61053a565b005b61027c610548565b6040516102899190610a10565b60405180910390f35b61029a61055f565b6040516102a79190610c0d565b60405180910390f35b6102ca60048036038101906102c59190610e25565b610585565b005b6102d46105a3565b6040516102e19190610aff565b60405180910390f35b60007f01ffc9a7000000000000000000000000000000000000000000000000000000007bffffffffffffffffffffffffffffffffffffffffffffffffffffffff1916827bffffffffffffffffffffffffffffffffffffffffffffffffffffffff1916149050919050565b6006805461036190610e94565b80601f016020809104026020016040519081016040528092919081815260200182805461038d90610e94565b80156103da5780601f106103af576101008083540402835291602001916103da565b820191906000526020600020905b8154815290600101906020018083116103bd57829003601f168201915b505050505081565b60045481565b60035481565b6000600454905090565b80600760006101000a81548160ff02191690831515021790555050565b60025481565b60008060008084815260200190815260200160002060009054906101000a900473ffffffffffffffffffffffffffffffffffffffff169050600073ffffffffffffffffffffffffffffffffffffffff168173ffffffffffffffffffffffffffffffffffffffff1614156104c3576040517f08c379a00000000000000000000000000000000000000000000000000000000081526004016104ba90610f12565b60405180910390fd5b80915050919050565b6104d683836105ad565b6104e3600084848461076d565b6104ec57600080fd5b505050565b6000600160008373ffffffffffffffffffffffffffffffffffffffff1673ffffffffffffffffffffffffffffffffffffffff168152602001908152602001600020549050919050565b6105448282610585565b5050565b6000600760009054906101000a900460ff16905090565b600560009054906101000a900473ffffffffffffffffffffffffffffffffffffffff1681565b61059f8282604051806020016040528060008152506104cc565b5050565b6000600354905090565b600073ffffffffffffffffffffffffffffffffffffffff168273ffffffffffffffffffffffffffffffffffffffff16141561061d576040517f08c379a000000000000000000000000000000000000000000000000000000000815260040161061490610fa4565b60405180910390fd5b610626816108d8565b15610666576040517f08c379a000000000000000000000000000000000000000000000000000000000815260040161065d90611036565b60405180910390fd5b60018060008473ffffffffffffffffffffffffffffffffffffffff1673ffffffffffffffffffffffffffffffffffffffff16815260200190815260200160002060008282546106b59190611085565b925050819055508160008083815260200190815260200160002060006101000a81548173ffffffffffffffffffffffffffffffffffffffff021916908373ffffffffffffffffffffffffffffffffffffffff160217905550808273ffffffffffffffffffffffffffffffffffffffff16600073ffffffffffffffffffffffffffffffffffffffff167fddf252ad1be2c89b69c2b068fc378daa952ba7f163c4a11628f55a4df523b3ef60405160405180910390a45050565b600061077884610943565b156108cb578373ffffffffffffffffffffffffffffffffffffffff1663150b7a02338786866040518563ffffffff1660e01b81526004016107bc9493929190611130565b6020604051808303816000875af19250505080156107f857506040513d601f19601f820116820180604052508101906107f59190611191565b60015b61087b573d8060008114610828576040519150601f19603f3d011682016040523d82523d6000602084013e61082d565b606091505b50600081511415610873576040517f08c379a000000000000000000000000000000000000000000000000000000000815260040161086a90611230565b60405180910390fd5b805181602001fd5b63150b7a0260e01b7bffffffffffffffffffffffffffffffffffffffffffffffffffffffff1916817bffffffffffffffffffffffffffffffffffffffffffffffffffffffff1916149150506108d0565b600190505b949350505050565b60008073ffffffffffffffffffffffffffffffffffffffff1660008084815260200190815260200160002060009054906101000a900473ffffffffffffffffffffffffffffffffffffffff1673ffffffffffffffffffffffffffffffffffffffff1614159050919050565b600080823b905060008163ffffffff1611915050919050565b6000604051905090565b600080fd5b600080fd5b60007fffffffff0000000000000000000000000000000000000000000000000000000082169050919050565b6109a581610970565b81146109b057600080fd5b50565b6000813590506109c28161099c565b92915050565b6000602082840312156109de576109dd610966565b5b60006109ec848285016109b3565b91505092915050565b60008115159050919050565b610a0a816109f5565b82525050565b6000602082019050610a256000830184610a01565b92915050565b600081519050919050565b600082825260208201905092915050565b60005b83811015610a65578082015181840152602081019050610a4a565b83811115610a74576000848401525b50505050565b6000601f19601f8301169050919050565b6000610a9682610a2b565b610aa08185610a36565b9350610ab0818560208601610a47565b610ab981610a7a565b840191505092915050565b60006020820190508181036000830152610ade8184610a8b565b905092915050565b6000819050919050565b610af981610ae6565b82525050565b6000602082019050610b146000830184610af0565b92915050565b610b23816109f5565b8114610b2e57600080fd5b50565b600081359050610b4081610b1a565b92915050565b600060208284031215610b5c57610b5b610966565b5b6000610b6a84828501610b31565b91505092915050565b610b7c81610ae6565b8114610b8757600080fd5b50565b600081359050610b9981610b73565b92915050565b600060208284031215610bb557610bb4610966565b5b6000610bc384828501610b8a565b91505092915050565b600073ffffffffffffffffffffffffffffffffffffffff82169050919050565b6000610bf782610bcc565b9050919050565b610c0781610bec565b82525050565b6000602082019050610c226000830184610bfe565b92915050565b610c3181610bec565b8114610c3c57600080fd5b50565b600081359050610c4e81610c28565b92915050565b600080fd5b600080fd5b7f4e487b7100000000000000000000000000000000000000000000000000000000600052604160045260246000fd5b610c9682610a7a565b810181811067ffffffffffffffff82111715610cb557610cb4610c5e565b5b80604052505050565b6000610cc861095c565b9050610cd48282610c8d565b919050565b600067ffffffffffffffff821115610cf457610cf3610c5e565b5b610cfd82610a7a565b9050602081019050919050565b82818337600083830152505050565b6000610d2c610d2784610cd9565b610cbe565b905082815260208101848484011115610d4857610d47610c59565b5b610d53848285610d0a565b509392505050565b600082601f830112610d7057610d6f610c54565b5b8135610d80848260208601610d19565b91505092915050565b600080600060608486031215610da257610da1610966565b5b6000610db086828701610c3f565b9350506020610dc186828701610b8a565b925050604084013567ffffffffffffffff811115610de257610de161096b565b5b610dee86828701610d5b565b9150509250925092565b600060208284031215610e0e57610e0d610966565b5b6000610e1c84828501610c3f565b91505092915050565b60008060408385031215610e3c57610e3b610966565b5b6000610e4a85828601610c3f565b9250506020610e5b85828601610b8a565b9150509250929050565b7f4e487b7100000000000000000000000000000000000000000000000000000000600052602260045260246000fd5b60006002820490506001821680610eac57607f821691505b60208210811415610ec057610ebf610e65565b5b50919050565b7f546f6b656e20696420646f6573206e6f74206578697374000000000000000000600082015250565b6000610efc601783610a36565b9150610f0782610ec6565b602082019050919050565b60006020820190508181036000830152610f2b81610eef565b9050919050565b7f455243373231204552524f523a206d696e7420746f20746865207a65726f206160008201527f6464726573730000000000000000000000000000000000000000000000000000602082015250565b6000610f8e602683610a36565b9150610f9982610f32565b604082019050919050565b60006020820190508181036000830152610fbd81610f81565b9050919050565b7f455243373231204552524f523a20546f6b656e20616c7265616479206d696e7460008201527f6564000000000000000000000000000000000000000000000000000000000000602082015250565b6000611020602283610a36565b915061102b82610fc4565b604082019050919050565b6000602082019050818103600083015261104f81611013565b9050919050565b7f4e487b7100000000000000000000000000000000000000000000000000000000600052601160045260246000fd5b600061109082610ae6565b915061109b83610ae6565b9250827fffffffffffffffffffffffffffffffffffffffffffffffffffffffffffffffff038211156110d0576110cf611056565b5b828201905092915050565b600081519050919050565b600082825260208201905092915050565b6000611102826110db565b61110c81856110e6565b935061111c818560208601610a47565b61112581610a7a565b840191505092915050565b60006080820190506111456000830187610bfe565b6111526020830186610bfe565b61115f6040830185610af0565b818103606083015261117181846110f7565b905095945050505050565b60008151905061118b8161099c565b92915050565b6000602082840312156111a7576111a6610966565b5b60006111b58482850161117c565b91505092915050565b7f4552433732313a207472616e7366657220746f206e6f6e20455243373231526560008201527f63656976657220696d706c656d656e7465720000000000000000000000000000602082015250565b600061121a603283610a36565b9150611225826111be565b604082019050919050565b600060208201905081810360008301526112498161120d565b905091905056fea26469706673582212200c61bd8ee50fde4044a2fe3c35c029331d387daadb08163706529bc2056da4f564736f6c634300080b0033a2646970667358221220076d0af1a2f1d4e2d3463a61563b5bf8e3071048c7346660b50173372ac9d92d64736f6c634300080b003360806040523480156200001157600080fd5b506040518060400160405280600981526020017f554e4952544f4b454e0000000000000000000000000000000000000000000000815250600090805190602001906200005f92919062000191565b506040518060400160405280600481526020017f554e544b0000000000000000000000000000000000000000000000000000000081525060019080519060200190620000ad92919062000191565b506012600260006101000a81548160ff021916908360ff16021790555069152d02c7e14af6800000600381905550600354600460003373ffffffffffffffffffffffffffffffffffffffff1673ffffffffffffffffffffffffffffffffffffffff168152602001908152602001600020819055503073ffffffffffffffffffffffffffffffffffffffff16600073ffffffffffffffffffffffffffffffffffffffff167fddf252ad1be2c89b69c2b068fc378daa952ba7f163c4a11628f55a4df523b3ef6003546040516200018391906200025c565b60405180910390a3620002de565b8280546200019f90620002a8565b90600052602060002090601f016020900481019282620001c357600085556200020f565b82601f10620001de57805160ff19168380011785556200020f565b828001600101855582156200020f579182015b828111156200020e578251825591602001919060010190620001f1565b5b5090506200021e919062000222565b5090565b5b808211156200023d57600081600090555060010162000223565b5090565b6000819050919050565b620002568162000241565b82525050565b60006020820190506200027360008301846200024b565b92915050565b7f4e487b7100000000000000000000000000000000000000000000000000000000600052602260045260246000fd5b60006002820490506001821680620002c157607f821691505b60208210811415620002d857620002d762000279565b5b50919050565b61100980620002ee6000396000f3fe608060405234801561001057600080fd5b50600436106100ea5760003560e01c806395d89b411161008c578063b5931f7c11610066578063b5931f7c14610275578063d05c78da146102a5578063dd62ed3e146102d5578063e6cb901314610305576100ea565b806395d89b41146101f7578063a293d1e814610215578063a9059cbb14610245576100ea565b806323b872dd116100c857806323b872dd1461015b578063313ce5671461018b5780633eaaf86b146101a957806370a08231146101c7576100ea565b806306fdde03146100ef578063095ea7b31461010d57806318160ddd1461013d575b600080fd5b6100f7610335565b6040516101049190610b6d565b60405180910390f35b61012760048036038101906101229190610c28565b6103c3565b6040516101349190610c83565b60405180910390f35b6101456104b5565b6040516101529190610cad565b60405180910390f35b61017560048036038101906101709190610cc8565b610509565b6040516101829190610c83565b60405180910390f35b6101936106dc565b6040516101a09190610d37565b60405180910390f35b6101b16106ef565b6040516101be9190610cad565b60405180910390f35b6101e160048036038101906101dc9190610d52565b6106f5565b6040516101ee9190610cad565b60405180910390f35b6101ff61073e565b60405161020c9190610b6d565b60405180910390f35b61022f600480360381019061022a9190610d7f565b6107cc565b60405161023c9190610cad565b60405180910390f35b61025f600480360381019061025a9190610c28565b6107ef565b60405161026c9190610c83565b60405180910390f35b61028f600480360381019061028a9190610d7f565b6109d0565b60405161029c9190610cad565b60405180910390f35b6102bf60048036038101906102ba9190610d7f565b6109f2565b6040516102cc9190610cad565b60405180910390f35b6102ef60048036038101906102ea9190610dbf565b610a2a565b6040516102fc9190610cad565b60405180910390f35b61031f600480360381019061031a9190610d7f565b610ab1565b60405161032c9190610cad565b60405180910390f35b6000805461034290610e2e565b80601f016020809104026020016040519081016040528092919081815260200182805461036e90610e2e565b80156103bb5780601f10610390576101008083540402835291602001916103bb565b820191906000526020600020905b81548152906001019060200180831161039e57829003601f168201915b505050505081565b600081600560003373ffffffffffffffffffffffffffffffffffffffff1673ffffffffffffffffffffffffffffffffffffffff16815260200190815260200160002060008573ffffffffffffffffffffffffffffffffffffffff1673ffffffffffffffffffffffffffffffffffffffff168152602001908152602001600020819055508273ffffffffffffffffffffffffffffffffffffffff163373ffffffffffffffffffffffffffffffffffffffff167f8c5be1e5ebec7d5bd14f71427d1e84f3dd0314c0f7b2291e5b200ac8c7c3b925846040516104a39190610cad565b60405180910390a36001905092915050565b6000600460008073ffffffffffffffffffffffffffffffffffffffff1673ffffffffffffffffffffffffffffffffffffffff168152602001908152602001600020546003546105049190610e8f565b905090565b60008073ffffffffffffffffffffffffffffffffffffffff168373ffffffffffffffffffffffffffffffffffffffff16141561054457600080fd5b81600560003373ffffffffffffffffffffffffffffffffffffffff1673ffffffffffffffffffffffffffffffffffffffff16815260200190815260200160002060008673ffffffffffffffffffffffffffffffffffffffff1673ffffffffffffffffffffffffffffffffffffffff1681526020019081526020016000205410156105cd57600080fd5b81600460008673ffffffffffffffffffffffffffffffffffffffff1673ffffffffffffffffffffffffffffffffffffffff168152602001908152602001600020541015801561061c5750600082115b61062557600080fd5b81600460008673ffffffffffffffffffffffffffffffffffffffff1673ffffffffffffffffffffffffffffffffffffffff16815260200190815260200160002060008282546106749190610e8f565b9250508190555081600460008573ffffffffffffffffffffffffffffffffffffffff1673ffffffffffffffffffffffffffffffffffffffff16815260200190815260200160002060008282546106ca9190610ec3565b92505081905550600190509392505050565b600260009054906101000a900460ff1681565b60035481565b6000600460008373ffffffffffffffffffffffffffffffffffffffff1673ffffffffffffffffffffffffffffffffffffffff168152602001908152602001600020549050919050565b6001805461074b90610e2e565b80601f016020809104026020016040519081016040528092919081815260200182805461077790610e2e565b80156107c45780601f10610799576101008083540402835291602001916107c4565b820191906000526020600020905b8154815290600101906020018083116107a757829003601f168201915b505050505081565b6000828211156107db57600080fd5b81836107e79190610e8f565b905092915050565b600081600460003373ffffffffffffffffffffffffffffffffffffffff1673ffffffffffffffffffffffffffffffffffffffff16815260200190815260200160002054101580156108405750600082115b61084957600080fd5b610892600460003373ffffffffffffffffffffffffffffffffffffffff1673ffffffffffffffffffffffffffffffffffffffff16815260200190815260200160002054836107cc565b600460003373ffffffffffffffffffffffffffffffffffffffff1673ffffffffffffffffffffffffffffffffffffffff1681526020019081526020016000208190555061091e600460008573ffffffffffffffffffffffffffffffffffffffff1673ffffffffffffffffffffffffffffffffffffffff1681526020019081526020016000205483610ab1565b600460008573ffffffffffffffffffffffffffffffffffffffff1673ffffffffffffffffffffffffffffffffffffffff168152602001908152602001600020819055508273ffffffffffffffffffffffffffffffffffffffff163373ffffffffffffffffffffffffffffffffffffffff167fddf252ad1be2c89b69c2b068fc378daa952ba7f163c4a11628f55a4df523b3ef846040516109be9190610cad565b60405180910390a36001905092915050565b60008082116109de57600080fd5b81836109ea9190610f48565b905092915050565b60008183610a009190610f79565b90506000831480610a1b5750818382610a199190610f48565b145b610a2457600080fd5b92915050565b6000600560008473ffffffffffffffffffffffffffffffffffffffff1673ffffffffffffffffffffffffffffffffffffffff16815260200190815260200160002060008373ffffffffffffffffffffffffffffffffffffffff1673ffffffffffffffffffffffffffffffffffffffff16815260200190815260200160002054905092915050565b60008183610abf9190610ec3565b905082811015610ace57600080fd5b92915050565b600081519050919050565b600082825260208201905092915050565b60005b83811015610b0e578082015181840152602081019050610af3565b83811115610b1d576000848401525b50505050565b6000601f19601f8301169050919050565b6000610b3f82610ad4565b610b498185610adf565b9350610b59818560208601610af0565b610b6281610b23565b840191505092915050565b60006020820190508181036000830152610b878184610b34565b905092915050565b600080fd5b600073ffffffffffffffffffffffffffffffffffffffff82169050919050565b6000610bbf82610b94565b9050919050565b610bcf81610bb4565b8114610bda57600080fd5b50565b600081359050610bec81610bc6565b92915050565b6000819050919050565b610c0581610bf2565b8114610c1057600080fd5b50565b600081359050610c2281610bfc565b92915050565b60008060408385031215610c3f57610c3e610b8f565b5b6000610c4d85828601610bdd565b9250506020610c5e85828601610c13565b9150509250929050565b60008115159050919050565b610c7d81610c68565b82525050565b6000602082019050610c986000830184610c74565b92915050565b610ca781610bf2565b82525050565b6000602082019050610cc26000830184610c9e565b92915050565b600080600060608486031215610ce157610ce0610b8f565b5b6000610cef86828701610bdd565b9350506020610d0086828701610bdd565b9250506040610d1186828701610c13565b9150509250925092565b600060ff82169050919050565b610d3181610d1b565b82525050565b6000602082019050610d4c6000830184610d28565b92915050565b600060208284031215610d6857610d67610b8f565b5b6000610d7684828501610bdd565b91505092915050565b60008060408385031215610d9657610d95610b8f565b5b6000610da485828601610c13565b9250506020610db585828601610c13565b9150509250929050565b60008060408385031215610dd657610dd5610b8f565b5b6000610de485828601610bdd565b9250506020610df585828601610bdd565b9150509250929050565b7f4e487b7100000000000000000000000000000000000000000000000000000000600052602260045260246000fd5b60006002820490506001821680610e4657607f821691505b60208210811415610e5a57610e59610dff565b5b50919050565b7f4e487b7100000000000000000000000000000000000000000000000000000000600052601160045260246000fd5b6000610e9a82610bf2565b9150610ea583610bf2565b925082821015610eb857610eb7610e60565b5b828203905092915050565b6000610ece82610bf2565b9150610ed983610bf2565b9250827fffffffffffffffffffffffffffffffffffffffffffffffffffffffffffffffff03821115610f0e57610f0d610e60565b5b828201905092915050565b7f4e487b7100000000000000000000000000000000000000000000000000000000600052601260045260246000fd5b6000610f5382610bf2565b9150610f5e83610bf2565b925082610f6e57610f6d610f19565b5b828204905092915050565b6000610f8482610bf2565b9150610f8f83610bf2565b9250817fffffffffffffffffffffffffffffffffffffffffffffffffffffffffffffffff0483118215151615610fc857610fc7610e60565b5b82820290509291505056fea264697066735822122024b632b3fd9c49731f02ffe177973af7eda622ca3fdedffd62c3d7d04b662fff64736f6c634300080b0033",
  "immutableReferences": {},
  "source": "//SPDX-License-Identifier: MIT\r\npragma solidity ^0.8.10;\r\n\r\n import \"./ERC20.sol\";\r\n import \"./Dron.sol\";\r\n import \"./Plot.sol\";\r\n import \"./SafeMath.sol\";\r\n\r\ncontract Dron_Company is SafeMath\r\n{\r\n    uint256 public id_dron;\r\n    uint256 public id_plot;\r\n\r\n    uint256 public n_trabajos;\r\n    address owner;\r\n    mapping (uint256 => Dron) internal drones; \r\n    mapping (uint256 => Plot) internal plots;\r\n\r\n\r\n    //la clave ser el id_plot y el valor ser el id_dron\r\n    mapping (uint256 => uint256) internal trabajosPendientes;\r\n\r\n    ERC20 token;\r\n\r\n    event ContrataDronFumigador (uint256 id_dron, uint256 id_plot);\r\n    event Sold (address buyer, uint256 amount);\r\n\r\n    constructor () \r\n    {\r\n        owner = msg.sender;\r\n        token = new ERC20();\r\n        id_dron = 0;\r\n        id_plot = 0;\r\n    }\r\n\r\n    function registraDron (uint256 maxheight, uint256 minheight, uint256 cost) public returns (bool success)\r\n    {\r\n        require(maxheight>minheight);\r\n        require(cost > 0);\r\n        require(maxheight > 0);\r\n        require(minheight > 0);\r\n        //creamos un nuevo dron\r\n        id_dron+=1;\r\n        Dron dron  = new Dron (maxheight, minheight, cost, id_dron); \r\n        drones[id_dron] = dron;\r\n        //minteamos\r\n        dron._mintDron(msg.sender, id_dron);\r\n        return true;\r\n    }\r\n\r\n    function registraPlot (uint256 maxheight, uint256 minheight, string memory _pesticide) public returns (bool success)\r\n    {\r\n        require(maxheight>minheight);\r\n        require(maxheight > 0);\r\n        require(minheight > 0);\r\n        require (compareStrings(_pesticide, \"Pesticida A\") || compareStrings(_pesticide, \"Pesticida B\") ||compareStrings(_pesticide, \"Pesticida C\") \r\n        || compareStrings(_pesticide, \"Pesticida D\") ||compareStrings(_pesticide, \"Pesticida E\"));\r\n\r\n        id_plot+=1;\r\n        Plot plot  = new Plot (maxheight, minheight, id_plot, _pesticide); \r\n        plots[id_plot] = plot;\r\n\r\n        //minteamos\r\n        plot._mintPlot(msg.sender, id_plot);\r\n        return true;\r\n    }\r\n\r\n\r\n    /************************************************/\r\n    function getDronesDisponibles() public view returns(uint256[] memory)\r\n    {\r\n        uint256 [] memory drones_disp = new uint256 [](id_dron);\r\n        uint n = 0;\r\n        for (uint i=1; i<=id_dron; i++)\r\n        {\r\n           if(drones[i].getDisponible())\r\n           {\r\n               drones_disp[n]=i;\r\n               n++;\r\n           }\r\n        }\r\n        return drones_disp;\r\n    }\r\n\r\n    function ContrataDron (uint256 iddron, uint256 idplot) public payable returns (bool success)\r\n    { \r\n        require (iddron != 0 && idplot != 0, \"Indicador no valido\");\r\n        address dron_owner = drones[iddron].ownerOf(iddron);\r\n        address plot_owner = plots[idplot].ownerOf(idplot);\r\n\r\n        require (msg.sender == plot_owner, \"No eres el propietario\"); \r\n\r\n        require (plots[idplot].getMaxHeight() >= drones[iddron].getMaxHeight(), \"Altura maxima no valida\");\r\n        require (plots[idplot].getMinHeight() <= drones[iddron].getMinHeight(),\"Altura minima no valida\");\r\n\r\n        require(!plots[idplot].getAtendido());\r\n        require(drones[iddron].getDisponible());\r\n        \r\n        uint tokens = drones[iddron].getCost();\r\n        require (token.balanceOf(msg.sender)>= tokens);\r\n        require (token.approve(plot_owner,  tokens));\r\n        require (token.transferFrom (plot_owner, dron_owner, tokens), \"ERROR AL TRANSFERIR\");\r\n        n_trabajos++;\r\n        trabajosPendientes[idplot] = iddron; \r\n        drones[iddron].setDisponible(false);\r\n\r\n        emit ContrataDronFumigador (iddron, idplot);\r\n        return true;\r\n    }\r\n\r\n    function aceptaTrabajos (uint256 iddron, uint256 idplot) public\r\n    {\r\n        require (iddron != 0 && idplot != 0);\r\n        require (msg.sender == drones[iddron].ownerOf(iddron));\r\n        require (trabajosPendientes[idplot] == iddron); \r\n        drones[iddron].fumigacion(idplot); \r\n        plots[idplot].setAtendido(true);\r\n        drones[iddron].setDisponible(true);\r\n        trabajosPendientes[idplot]=0;\r\n        n_trabajos= n_trabajos-1;\r\n    }\r\n\r\n    function getTrabajosDisponibles() public view returns(uint256[] memory)\r\n    {\r\n        uint256 [] memory trabajosOwner = new uint256 [] (n_trabajos);\r\n        uint n = 0;\r\n        \r\n        for (uint i=1; i<=n_trabajos; i++)\r\n        {\r\n            uint256 iddron = trabajosPendientes[i];\r\n            \r\n            if (iddron != 0)\r\n            {\r\n                address dron_owner = drones[iddron].ownerOf(iddron);\r\n                if (dron_owner == msg.sender)\r\n                {\r\n                    trabajosOwner[n]=i;\r\n                    n++;\r\n                }\r\n            }\r\n        }\r\n        return trabajosOwner;\r\n    }\r\n\r\n    function buyTokens(uint256 _amount) public payable returns (bool success) \r\n    {\r\n        require(msg.value > safeMul(_amount, 1000));\r\n\r\n        uint256 amountToBuy = safeMul(_amount, uint256(10)**18);\r\n\r\n        require(token.balanceOf(address(this)) >= amountToBuy);\r\n        \r\n        require(token.transfer(msg.sender, amountToBuy));\r\n\r\n        emit Sold(msg.sender, amountToBuy); \r\n\r\n        return true;\r\n    }\r\n\r\n    function getBalanceOf (address dir) public view returns (uint)\r\n    {\r\n        return token.balanceOf(dir);\r\n    }\r\n\r\n\r\n    /*****************************************************************/\r\n    function get_idDron() public view returns(uint256)\r\n    {\r\n        return id_dron;\r\n    }\r\n\r\n    function get_idPlot() public view returns(uint256)\r\n    {\r\n        return id_plot;\r\n    }\r\n    function getCost(uint256 iddron) public view returns (uint256)\r\n    {\r\n        return drones[iddron].getCost();\r\n    }\r\n\r\n    function getMaxHeight(uint256 iddron) public view returns (uint256)\r\n    {\r\n        return drones[iddron].getMaxHeight();\r\n    }\r\n\r\n    function getMinHeight(uint256 iddron) public view returns (uint256)\r\n    {\r\n        return drones[iddron].getMinHeight();\r\n    }\r\n\r\n    function compareStrings(string memory a, string memory b) internal pure returns (bool) \r\n    {\r\n        return (keccak256(abi.encodePacked((a))) == keccak256(abi.encodePacked((b))));\r\n    }\r\n\r\n \r\n}",
  "sourcePath": "C:\\Users\\ylguillen\\Desktop\\PruebasDApp\\contracts\\Dron_Company.sol",
  "compiler": {
    "name": "solc",
    "version": "0.8.11+commit.d7f03943.Emscripten.clang"
  },
  "schemaVersion": "3.4.4",
  "updatedAt": "2022-04-03T19:54:57.401Z",
  "devdoc": {
    "kind": "dev",
    "methods": {},
    "version": 1
  },
  "userdoc": {
    "kind": "user",
    "methods": {},
    "version": 1
  }
}