{
  "contractName": "Dron",
  "abi": [
    {
      "inputs": [
        {
          "internalType": "uint256",
          "name": "maxheight",
          "type": "uint256"
        },
        {
          "internalType": "uint256",
          "name": "minheight",
          "type": "uint256"
        },
        {
          "internalType": "uint256",
          "name": "_cost",
          "type": "uint256"
        },
        {
          "internalType": "uint256",
          "name": "id",
          "type": "uint256"
        }
      ],
      "stateMutability": "nonpayable",
      "type": "constructor"
    },
    {
      "anonymous": false,
      "inputs": [
        {
          "indexed": true,
          "internalType": "address",
          "name": "from",
          "type": "address"
        },
        {
          "indexed": true,
          "internalType": "address",
          "name": "to",
          "type": "address"
        },
        {
          "indexed": true,
          "internalType": "uint256",
          "name": "tokenId",
          "type": "uint256"
        }
      ],
      "name": "Transfer",
      "type": "event"
    },
    {
      "anonymous": false,
      "inputs": [
        {
          "indexed": false,
          "internalType": "uint256",
          "name": "idplot",
          "type": "uint256"
        }
      ],
      "name": "fumigacion_plot",
      "type": "event"
    },
    {
      "inputs": [
        {
          "internalType": "address",
          "name": "to",
          "type": "address"
        },
        {
          "internalType": "uint256",
          "name": "tokenId",
          "type": "uint256"
        },
        {
          "internalType": "bytes",
          "name": "_data",
          "type": "bytes"
        }
      ],
      "name": "_safeMint",
      "outputs": [],
      "stateMutability": "nonpayable",
      "type": "function"
    },
    {
      "inputs": [
        {
          "internalType": "address",
          "name": "to",
          "type": "address"
        },
        {
          "internalType": "uint256",
          "name": "tokenId",
          "type": "uint256"
        }
      ],
      "name": "_safeMint",
      "outputs": [],
      "stateMutability": "nonpayable",
      "type": "function"
    },
    {
      "inputs": [
        {
          "internalType": "address",
          "name": "owner",
          "type": "address"
        }
      ],
      "name": "balanceOf",
      "outputs": [
        {
          "internalType": "uint256",
          "name": "balance",
          "type": "uint256"
        }
      ],
      "stateMutability": "view",
      "type": "function"
    },
    {
      "inputs": [],
      "name": "cost",
      "outputs": [
        {
          "internalType": "uint256",
          "name": "",
          "type": "uint256"
        }
      ],
      "stateMutability": "view",
      "type": "function"
    },
    {
      "inputs": [],
      "name": "id_dron",
      "outputs": [
        {
          "internalType": "uint256",
          "name": "",
          "type": "uint256"
        }
      ],
      "stateMutability": "view",
      "type": "function"
    },
    {
      "inputs": [],
      "name": "max_height",
      "outputs": [
        {
          "internalType": "uint256",
          "name": "",
          "type": "uint256"
        }
      ],
      "stateMutability": "view",
      "type": "function"
    },
    {
      "inputs": [],
      "name": "min_height",
      "outputs": [
        {
          "internalType": "uint256",
          "name": "",
          "type": "uint256"
        }
      ],
      "stateMutability": "view",
      "type": "function"
    },
    {
      "inputs": [],
      "name": "owner",
      "outputs": [
        {
          "internalType": "address",
          "name": "",
          "type": "address"
        }
      ],
      "stateMutability": "view",
      "type": "function"
    },
    {
      "inputs": [
        {
          "internalType": "uint256",
          "name": "tokenId",
          "type": "uint256"
        }
      ],
      "name": "ownerOf",
      "outputs": [
        {
          "internalType": "address",
          "name": "",
          "type": "address"
        }
      ],
      "stateMutability": "view",
      "type": "function"
    },
    {
      "inputs": [
        {
          "internalType": "uint256",
          "name": "",
          "type": "uint256"
        }
      ],
      "name": "pesticide",
      "outputs": [
        {
          "internalType": "string",
          "name": "",
          "type": "string"
        }
      ],
      "stateMutability": "view",
      "type": "function"
    },
    {
      "inputs": [
        {
          "internalType": "bytes4",
          "name": "interfaceId",
          "type": "bytes4"
        }
      ],
      "name": "supportsInterface",
      "outputs": [
        {
          "internalType": "bool",
          "name": "",
          "type": "bool"
        }
      ],
      "stateMutability": "view",
      "type": "function"
    },
    {
      "inputs": [
        {
          "internalType": "address",
          "name": "to",
          "type": "address"
        },
        {
          "internalType": "uint256",
          "name": "tokenId",
          "type": "uint256"
        }
      ],
      "name": "_mintDron",
      "outputs": [],
      "stateMutability": "nonpayable",
      "type": "function"
    },
    {
      "inputs": [
        {
          "internalType": "uint256",
          "name": "idplot",
          "type": "uint256"
        }
      ],
      "name": "fumigacion",
      "outputs": [],
      "stateMutability": "nonpayable",
      "type": "function"
    },
    {
      "inputs": [],
      "name": "getCost",
      "outputs": [
        {
          "internalType": "uint256",
          "name": "",
          "type": "uint256"
        }
      ],
      "stateMutability": "view",
      "type": "function"
    },
    {
      "inputs": [],
      "name": "getMaxHeight",
      "outputs": [
        {
          "internalType": "uint256",
          "name": "",
          "type": "uint256"
        }
      ],
      "stateMutability": "view",
      "type": "function"
    },
    {
      "inputs": [],
      "name": "getMinHeight",
      "outputs": [
        {
          "internalType": "uint256",
          "name": "",
          "type": "uint256"
        }
      ],
      "stateMutability": "view",
      "type": "function"
    },
    {
      "inputs": [],
      "name": "getDisponible",
      "outputs": [
        {
          "internalType": "bool",
          "name": "",
          "type": "bool"
        }
      ],
      "stateMutability": "view",
      "type": "function"
    },
    {
      "inputs": [
        {
          "internalType": "bool",
          "name": "estado",
          "type": "bool"
        }
      ],
      "name": "setDisponible",
      "outputs": [],
      "stateMutability": "nonpayable",
      "type": "function"
    }
  ],
  "bytecode": "0x60806040523480156200001157600080fd5b506040516200187a3803806200187a8339818101604052810190620000379190620003c1565b836003819055508260048190555081600581905550806002819055506040518060a001604052806040518060400160405280600b81526020017f506573746963696461204100000000000000000000000000000000000000000081525081526020016040518060400160405280600b81526020017f506573746963696461204200000000000000000000000000000000000000000081525081526020016040518060400160405280600b81526020017f506573746963696461204300000000000000000000000000000000000000000081525081526020016040518060400160405280600b81526020017f506573746963696461204400000000000000000000000000000000000000000081525081526020016040518060400160405280600b81526020017f5065737469636964612045000000000000000000000000000000000000000000815250815250600690600562000195929190620001fc565b5033600760006101000a81548173ffffffffffffffffffffffffffffffffffffffff021916908373ffffffffffffffffffffffffffffffffffffffff1602179055506001600760146101000a81548160ff0219169083151502179055505050505062000498565b82805482825590600052602060002090810192821562000250579160200282015b828111156200024f5782518290805190602001906200023e92919062000263565b50916020019190600101906200021d565b5b5090506200025f9190620002f4565b5090565b828054620002719062000462565b90600052602060002090601f016020900481019282620002955760008555620002e1565b82601f10620002b057805160ff1916838001178555620002e1565b82800160010185558215620002e1579182015b82811115620002e0578251825591602001919060010190620002c3565b5b509050620002f091906200031c565b5090565b5b808211156200031857600081816200030e91906200033b565b50600101620002f5565b5090565b5b80821115620003375760008160009055506001016200031d565b5090565b508054620003499062000462565b6000825580601f106200035d57506200037e565b601f0160209004906000526020600020908101906200037d91906200031c565b5b50565b600080fd5b6000819050919050565b6200039b8162000386565b8114620003a757600080fd5b50565b600081519050620003bb8162000390565b92915050565b60008060008060808587031215620003de57620003dd62000381565b5b6000620003ee87828801620003aa565b94505060206200040187828801620003aa565b93505060406200041487828801620003aa565b92505060606200042787828801620003aa565b91505092959194509250565b7f4e487b7100000000000000000000000000000000000000000000000000000000600052602260045260246000fd5b600060028204905060018216806200047b57607f821691505b6020821081141562000492576200049162000433565b5b50919050565b6113d280620004a86000396000f3fe608060405234801561001057600080fd5b50600436106101155760003560e01c80636352211e116100a2578063b3e1c71811610071578063b3e1c718146102e2578063bd3e19d4146102fe578063cf22b5771461031c578063e2fb98931461033a578063e7bcebf01461035657610115565b80636352211e146102485780636a4f832b1461027857806370a08231146102945780638da5cb5b146102c457610115565b80631e7ec0f3116100e95780631e7ec0f3146101b65780632b81ff95146101d257806332b93996146101ee5780633fbaa4751461020c57806349befa851461022a57610115565b8062fef8561461011a57806301ffc9a71461013857806313faede614610168578063175f4eae14610186575b600080fd5b610122610374565b60405161012f9190610ac3565b60405180910390f35b610152600480360381019061014d9190610b4a565b61038b565b60405161015f9190610ac3565b60405180910390f35b6101706103f5565b60405161017d9190610b90565b60405180910390f35b6101a0600480360381019061019b9190610bd7565b6103fb565b6040516101ad9190610c9d565b60405180910390f35b6101d060048036038101906101cb9190610bd7565b6104a7565b005b6101ec60048036038101906101e79190610ceb565b61053b565b005b6101f6610558565b6040516102039190610b90565b60405180910390f35b61021461055e565b6040516102219190610b90565b60405180910390f35b610232610564565b60405161023f9190610b90565b60405180910390f35b610262600480360381019061025d9190610bd7565b61056e565b60405161026f9190610d59565b60405180910390f35b610292600480360381019061028d9190610ed5565b61061f565b005b6102ae60048036038101906102a99190610f44565b610644565b6040516102bb9190610b90565b60405180910390f35b6102cc61068d565b6040516102d99190610d59565b60405180910390f35b6102fc60048036038101906102f79190610f71565b6106b3565b005b6103066106d1565b6040516103139190610b90565b60405180910390f35b6103246106db565b6040516103319190610b90565b60405180910390f35b610354600480360381019061034f9190610f71565b6106e5565b005b61035e6106f3565b60405161036b9190610b90565b60405180910390f35b6000600760149054906101000a900460ff16905090565b60007f01ffc9a7000000000000000000000000000000000000000000000000000000007bffffffffffffffffffffffffffffffffffffffffffffffffffffffff1916827bffffffffffffffffffffffffffffffffffffffffffffffffffffffff1916149050919050565b60055481565b6006818154811061040b57600080fd5b90600052602060002001600091509050805461042690610fe0565b80601f016020809104026020016040519081016040528092919081815260200182805461045290610fe0565b801561049f5780601f106104745761010080835404028352916020019161049f565b820191906000526020600020905b81548152906001019060200180831161048257829003601f168201915b505050505081565b600760009054906101000a900473ffffffffffffffffffffffffffffffffffffffff1673ffffffffffffffffffffffffffffffffffffffff163373ffffffffffffffffffffffffffffffffffffffff161461050157600080fd5b7f127988bd735ffa5c5534fd889e7069d274b48e633535f314e203463f4ebf87a3816040516105309190610b90565b60405180910390a150565b80600760146101000a81548160ff02191690831515021790555050565b60045481565b60035481565b6000600454905090565b60008060008084815260200190815260200160002060009054906101000a900473ffffffffffffffffffffffffffffffffffffffff169050600073ffffffffffffffffffffffffffffffffffffffff168173ffffffffffffffffffffffffffffffffffffffff161415610616576040517f08c379a000000000000000000000000000000000000000000000000000000000815260040161060d9061105e565b60405180910390fd5b80915050919050565b61062983836106f9565b61063660008484846108b9565b61063f57600080fd5b505050565b6000600160008373ffffffffffffffffffffffffffffffffffffffff1673ffffffffffffffffffffffffffffffffffffffff168152602001908152602001600020549050919050565b600760009054906101000a900473ffffffffffffffffffffffffffffffffffffffff1681565b6106cd82826040518060200160405280600081525061061f565b5050565b6000600554905090565b6000600354905090565b6106ef82826106b3565b5050565b60025481565b600073ffffffffffffffffffffffffffffffffffffffff168273ffffffffffffffffffffffffffffffffffffffff161415610769576040517f08c379a0000000000000000000000000000000000000000000000000000000008152600401610760906110f0565b60405180910390fd5b61077281610a24565b156107b2576040517f08c379a00000000000000000000000000000000000000000000000000000000081526004016107a990611182565b60405180910390fd5b60018060008473ffffffffffffffffffffffffffffffffffffffff1673ffffffffffffffffffffffffffffffffffffffff168152602001908152602001600020600082825461080191906111d1565b925050819055508160008083815260200190815260200160002060006101000a81548173ffffffffffffffffffffffffffffffffffffffff021916908373ffffffffffffffffffffffffffffffffffffffff160217905550808273ffffffffffffffffffffffffffffffffffffffff16600073ffffffffffffffffffffffffffffffffffffffff167fddf252ad1be2c89b69c2b068fc378daa952ba7f163c4a11628f55a4df523b3ef60405160405180910390a45050565b60006108c484610a8f565b15610a17578373ffffffffffffffffffffffffffffffffffffffff1663150b7a02338786866040518563ffffffff1660e01b8152600401610908949392919061127c565b6020604051808303816000875af192505050801561094457506040513d601f19601f8201168201806040525081019061094191906112dd565b60015b6109c7573d8060008114610974576040519150601f19603f3d011682016040523d82523d6000602084013e610979565b606091505b506000815114156109bf576040517f08c379a00000000000000000000000000000000000000000000000000000000081526004016109b69061137c565b60405180910390fd5b805181602001fd5b63150b7a0260e01b7bffffffffffffffffffffffffffffffffffffffffffffffffffffffff1916817bffffffffffffffffffffffffffffffffffffffffffffffffffffffff191614915050610a1c565b600190505b949350505050565b60008073ffffffffffffffffffffffffffffffffffffffff1660008084815260200190815260200160002060009054906101000a900473ffffffffffffffffffffffffffffffffffffffff1673ffffffffffffffffffffffffffffffffffffffff1614159050919050565b600080823b905060008163ffffffff1611915050919050565b60008115159050919050565b610abd81610aa8565b82525050565b6000602082019050610ad86000830184610ab4565b92915050565b6000604051905090565b600080fd5b600080fd5b60007fffffffff0000000000000000000000000000000000000000000000000000000082169050919050565b610b2781610af2565b8114610b3257600080fd5b50565b600081359050610b4481610b1e565b92915050565b600060208284031215610b6057610b5f610ae8565b5b6000610b6e84828501610b35565b91505092915050565b6000819050919050565b610b8a81610b77565b82525050565b6000602082019050610ba56000830184610b81565b92915050565b610bb481610b77565b8114610bbf57600080fd5b50565b600081359050610bd181610bab565b92915050565b600060208284031215610bed57610bec610ae8565b5b6000610bfb84828501610bc2565b91505092915050565b600081519050919050565b600082825260208201905092915050565b60005b83811015610c3e578082015181840152602081019050610c23565b83811115610c4d576000848401525b50505050565b6000601f19601f8301169050919050565b6000610c6f82610c04565b610c798185610c0f565b9350610c89818560208601610c20565b610c9281610c53565b840191505092915050565b60006020820190508181036000830152610cb78184610c64565b905092915050565b610cc881610aa8565b8114610cd357600080fd5b50565b600081359050610ce581610cbf565b92915050565b600060208284031215610d0157610d00610ae8565b5b6000610d0f84828501610cd6565b91505092915050565b600073ffffffffffffffffffffffffffffffffffffffff82169050919050565b6000610d4382610d18565b9050919050565b610d5381610d38565b82525050565b6000602082019050610d6e6000830184610d4a565b92915050565b610d7d81610d38565b8114610d8857600080fd5b50565b600081359050610d9a81610d74565b92915050565b600080fd5b600080fd5b7f4e487b7100000000000000000000000000000000000000000000000000000000600052604160045260246000fd5b610de282610c53565b810181811067ffffffffffffffff82111715610e0157610e00610daa565b5b80604052505050565b6000610e14610ade565b9050610e208282610dd9565b919050565b600067ffffffffffffffff821115610e4057610e3f610daa565b5b610e4982610c53565b9050602081019050919050565b82818337600083830152505050565b6000610e78610e7384610e25565b610e0a565b905082815260208101848484011115610e9457610e93610da5565b5b610e9f848285610e56565b509392505050565b600082601f830112610ebc57610ebb610da0565b5b8135610ecc848260208601610e65565b91505092915050565b600080600060608486031215610eee57610eed610ae8565b5b6000610efc86828701610d8b565b9350506020610f0d86828701610bc2565b925050604084013567ffffffffffffffff811115610f2e57610f2d610aed565b5b610f3a86828701610ea7565b9150509250925092565b600060208284031215610f5a57610f59610ae8565b5b6000610f6884828501610d8b565b91505092915050565b60008060408385031215610f8857610f87610ae8565b5b6000610f9685828601610d8b565b9250506020610fa785828601610bc2565b9150509250929050565b7f4e487b7100000000000000000000000000000000000000000000000000000000600052602260045260246000fd5b60006002820490506001821680610ff857607f821691505b6020821081141561100c5761100b610fb1565b5b50919050565b7f546f6b656e20696420646f6573206e6f74206578697374000000000000000000600082015250565b6000611048601783610c0f565b915061105382611012565b602082019050919050565b600060208201905081810360008301526110778161103b565b9050919050565b7f455243373231204552524f523a206d696e7420746f20746865207a65726f206160008201527f6464726573730000000000000000000000000000000000000000000000000000602082015250565b60006110da602683610c0f565b91506110e58261107e565b604082019050919050565b60006020820190508181036000830152611109816110cd565b9050919050565b7f455243373231204552524f523a20546f6b656e20616c7265616479206d696e7460008201527f6564000000000000000000000000000000000000000000000000000000000000602082015250565b600061116c602283610c0f565b915061117782611110565b604082019050919050565b6000602082019050818103600083015261119b8161115f565b9050919050565b7f4e487b7100000000000000000000000000000000000000000000000000000000600052601160045260246000fd5b60006111dc82610b77565b91506111e783610b77565b9250827fffffffffffffffffffffffffffffffffffffffffffffffffffffffffffffffff0382111561121c5761121b6111a2565b5b828201905092915050565b600081519050919050565b600082825260208201905092915050565b600061124e82611227565b6112588185611232565b9350611268818560208601610c20565b61127181610c53565b840191505092915050565b60006080820190506112916000830187610d4a565b61129e6020830186610d4a565b6112ab6040830185610b81565b81810360608301526112bd8184611243565b905095945050505050565b6000815190506112d781610b1e565b92915050565b6000602082840312156112f3576112f2610ae8565b5b6000611301848285016112c8565b91505092915050565b7f4552433732313a207472616e7366657220746f206e6f6e20455243373231526560008201527f63656976657220696d706c656d656e7465720000000000000000000000000000602082015250565b6000611366603283610c0f565b91506113718261130a565b604082019050919050565b6000602082019050818103600083015261139581611359565b905091905056fea26469706673582212208226e82500a0ae2e0c2e3a4f9081877070d67f82898bd9d5a5562d52d5b5bd3e64736f6c634300080b0033",
  "immutableReferences": {},
  "source": "//SPDX-License-Identifier: MIT\r\npragma solidity ^0.8.10;\r\nimport  \"./ERC721.sol\";\r\n\r\ncontract Dron is ERC721 \r\n{\r\n    uint256 public id_dron;\r\n    uint256 public max_height;\r\n    uint256 public min_height;\r\n    uint256 public  cost;\r\n    string[] public pesticide;\r\n    address public owner;\r\n\r\n    bool disponible;\r\n\r\n    event fumigacion_plot (uint256 idplot) ;\r\n\r\n    constructor (uint256 maxheight, uint256 minheight, uint256 _cost, uint256 id) \r\n    {\r\n        max_height = maxheight;\r\n        min_height = minheight;\r\n        cost = _cost;\r\n        id_dron = id;\r\n        pesticide = [\"Pesticida A\", \"Pesticida B\", \"Pesticida C\", \"Pesticida D\", \"Pesticida E\"];\r\n        owner = msg.sender;\r\n        disponible = true;\r\n    }\r\n\r\n    function _mintDron(address to, uint256 tokenId) public \r\n    {\r\n        //identificador unico ascendente\r\n        ERC721._safeMint(to, tokenId);\r\n    }\r\n    \r\n    function fumigacion (uint256 idplot) public\r\n    {\r\n       // comprobar que quien manda la accion es el owner\r\n        require (msg.sender == owner); \r\n        emit fumigacion_plot (idplot);\r\n    }\r\n    \r\n\r\n    /****************************************************/\r\n    function getCost()  public view returns (uint256)\r\n    {\r\n        return cost;\r\n    }\r\n \r\n    function getMaxHeight()  public view returns (uint256)\r\n    {\r\n        return max_height;\r\n    }\r\n\r\n    function getMinHeight()  public view returns (uint256)\r\n    {\r\n        return min_height;\r\n    }\r\n\r\n    function getDisponible() public view returns(bool)\r\n    {\r\n        return disponible;\r\n    }\r\n\r\n    function setDisponible(bool estado) public  \r\n    {\r\n         disponible=estado;\r\n    }\r\n}\r\n",
  "sourcePath": "C:\\Users\\ylguillen\\Desktop\\PruebasDApp\\contracts\\Dron.sol",
  "compiler": {
    "name": "solc",
    "version": "0.8.11+commit.d7f03943.Emscripten.clang"
  },
  "schemaVersion": "3.4.4",
  "updatedAt": "2022-04-03T19:54:57.371Z",
  "devdoc": {
    "kind": "dev",
    "methods": {},
    "version": 1
  },
  "userdoc": {
    "kind": "user",
    "methods": {},
    "version": 1
  }
}