{
  "contractName": "ERC721",
  "abi": [
    {
      "anonymous": false,
      "inputs": [
        {
          "indexed": true,
          "internalType": "address",
          "name": "from",
          "type": "address"
        },
        {
          "indexed": true,
          "internalType": "address",
          "name": "to",
          "type": "address"
        },
        {
          "indexed": true,
          "internalType": "uint256",
          "name": "tokenId",
          "type": "uint256"
        }
      ],
      "name": "Transfer",
      "type": "event"
    },
    {
      "inputs": [
        {
          "internalType": "bytes4",
          "name": "interfaceId",
          "type": "bytes4"
        }
      ],
      "name": "supportsInterface",
      "outputs": [
        {
          "internalType": "bool",
          "name": "",
          "type": "bool"
        }
      ],
      "stateMutability": "view",
      "type": "function"
    },
    {
      "inputs": [
        {
          "internalType": "uint256",
          "name": "tokenId",
          "type": "uint256"
        }
      ],
      "name": "ownerOf",
      "outputs": [
        {
          "internalType": "address",
          "name": "",
          "type": "address"
        }
      ],
      "stateMutability": "view",
      "type": "function"
    },
    {
      "inputs": [
        {
          "internalType": "address",
          "name": "owner",
          "type": "address"
        }
      ],
      "name": "balanceOf",
      "outputs": [
        {
          "internalType": "uint256",
          "name": "balance",
          "type": "uint256"
        }
      ],
      "stateMutability": "view",
      "type": "function"
    },
    {
      "inputs": [
        {
          "internalType": "address",
          "name": "to",
          "type": "address"
        },
        {
          "internalType": "uint256",
          "name": "tokenId",
          "type": "uint256"
        },
        {
          "internalType": "bytes",
          "name": "_data",
          "type": "bytes"
        }
      ],
      "name": "_safeMint",
      "outputs": [],
      "stateMutability": "nonpayable",
      "type": "function"
    },
    {
      "inputs": [
        {
          "internalType": "address",
          "name": "to",
          "type": "address"
        },
        {
          "internalType": "uint256",
          "name": "tokenId",
          "type": "uint256"
        }
      ],
      "name": "_safeMint",
      "outputs": [],
      "stateMutability": "nonpayable",
      "type": "function"
    }
  ],
  "bytecode": "0x608060405234801561001057600080fd5b50610e84806100206000396000f3fe608060405234801561001057600080fd5b50600436106100575760003560e01c806301ffc9a71461005c5780636352211e1461008c5780636a4f832b146100bc57806370a08231146100d8578063b3e1c71814610108575b600080fd5b610076600480360381019061007191906106e6565b610124565b604051610083919061072e565b60405180910390f35b6100a660048036038101906100a1919061077f565b61018e565b6040516100b391906107ed565b60405180910390f35b6100d660048036038101906100d1919061097a565b61023f565b005b6100f260048036038101906100ed91906109e9565b610264565b6040516100ff9190610a25565b60405180910390f35b610122600480360381019061011d9190610a40565b6102ad565b005b60007f01ffc9a7000000000000000000000000000000000000000000000000000000007bffffffffffffffffffffffffffffffffffffffffffffffffffffffff1916827bffffffffffffffffffffffffffffffffffffffffffffffffffffffff1916149050919050565b60008060008084815260200190815260200160002060009054906101000a900473ffffffffffffffffffffffffffffffffffffffff169050600073ffffffffffffffffffffffffffffffffffffffff168173ffffffffffffffffffffffffffffffffffffffff161415610236576040517f08c379a000000000000000000000000000000000000000000000000000000000815260040161022d90610add565b60405180910390fd5b80915050919050565b61024983836102cb565b610256600084848461048b565b61025f57600080fd5b505050565b6000600160008373ffffffffffffffffffffffffffffffffffffffff1673ffffffffffffffffffffffffffffffffffffffff168152602001908152602001600020549050919050565b6102c782826040518060200160405280600081525061023f565b5050565b600073ffffffffffffffffffffffffffffffffffffffff168273ffffffffffffffffffffffffffffffffffffffff16141561033b576040517f08c379a000000000000000000000000000000000000000000000000000000000815260040161033290610b6f565b60405180910390fd5b610344816105f6565b15610384576040517f08c379a000000000000000000000000000000000000000000000000000000000815260040161037b90610c01565b60405180910390fd5b60018060008473ffffffffffffffffffffffffffffffffffffffff1673ffffffffffffffffffffffffffffffffffffffff16815260200190815260200160002060008282546103d39190610c50565b925050819055508160008083815260200190815260200160002060006101000a81548173ffffffffffffffffffffffffffffffffffffffff021916908373ffffffffffffffffffffffffffffffffffffffff160217905550808273ffffffffffffffffffffffffffffffffffffffff16600073ffffffffffffffffffffffffffffffffffffffff167fddf252ad1be2c89b69c2b068fc378daa952ba7f163c4a11628f55a4df523b3ef60405160405180910390a45050565b600061049684610661565b156105e9578373ffffffffffffffffffffffffffffffffffffffff1663150b7a02338786866040518563ffffffff1660e01b81526004016104da9493929190610d2e565b6020604051808303816000875af192505050801561051657506040513d601f19601f820116820180604052508101906105139190610d8f565b60015b610599573d8060008114610546576040519150601f19603f3d011682016040523d82523d6000602084013e61054b565b606091505b50600081511415610591576040517f08c379a000000000000000000000000000000000000000000000000000000000815260040161058890610e2e565b60405180910390fd5b805181602001fd5b63150b7a0260e01b7bffffffffffffffffffffffffffffffffffffffffffffffffffffffff1916817bffffffffffffffffffffffffffffffffffffffffffffffffffffffff1916149150506105ee565b600190505b949350505050565b60008073ffffffffffffffffffffffffffffffffffffffff1660008084815260200190815260200160002060009054906101000a900473ffffffffffffffffffffffffffffffffffffffff1673ffffffffffffffffffffffffffffffffffffffff1614159050919050565b600080823b905060008163ffffffff1611915050919050565b6000604051905090565b600080fd5b600080fd5b60007fffffffff0000000000000000000000000000000000000000000000000000000082169050919050565b6106c38161068e565b81146106ce57600080fd5b50565b6000813590506106e0816106ba565b92915050565b6000602082840312156106fc576106fb610684565b5b600061070a848285016106d1565b91505092915050565b60008115159050919050565b61072881610713565b82525050565b6000602082019050610743600083018461071f565b92915050565b6000819050919050565b61075c81610749565b811461076757600080fd5b50565b60008135905061077981610753565b92915050565b60006020828403121561079557610794610684565b5b60006107a38482850161076a565b91505092915050565b600073ffffffffffffffffffffffffffffffffffffffff82169050919050565b60006107d7826107ac565b9050919050565b6107e7816107cc565b82525050565b600060208201905061080260008301846107de565b92915050565b610811816107cc565b811461081c57600080fd5b50565b60008135905061082e81610808565b92915050565b600080fd5b600080fd5b6000601f19601f8301169050919050565b7f4e487b7100000000000000000000000000000000000000000000000000000000600052604160045260246000fd5b6108878261083e565b810181811067ffffffffffffffff821117156108a6576108a561084f565b5b80604052505050565b60006108b961067a565b90506108c5828261087e565b919050565b600067ffffffffffffffff8211156108e5576108e461084f565b5b6108ee8261083e565b9050602081019050919050565b82818337600083830152505050565b600061091d610918846108ca565b6108af565b90508281526020810184848401111561093957610938610839565b5b6109448482856108fb565b509392505050565b600082601f83011261096157610960610834565b5b813561097184826020860161090a565b91505092915050565b60008060006060848603121561099357610992610684565b5b60006109a18682870161081f565b93505060206109b28682870161076a565b925050604084013567ffffffffffffffff8111156109d3576109d2610689565b5b6109df8682870161094c565b9150509250925092565b6000602082840312156109ff576109fe610684565b5b6000610a0d8482850161081f565b91505092915050565b610a1f81610749565b82525050565b6000602082019050610a3a6000830184610a16565b92915050565b60008060408385031215610a5757610a56610684565b5b6000610a658582860161081f565b9250506020610a768582860161076a565b9150509250929050565b600082825260208201905092915050565b7f546f6b656e20696420646f6573206e6f74206578697374000000000000000000600082015250565b6000610ac7601783610a80565b9150610ad282610a91565b602082019050919050565b60006020820190508181036000830152610af681610aba565b9050919050565b7f455243373231204552524f523a206d696e7420746f20746865207a65726f206160008201527f6464726573730000000000000000000000000000000000000000000000000000602082015250565b6000610b59602683610a80565b9150610b6482610afd565b604082019050919050565b60006020820190508181036000830152610b8881610b4c565b9050919050565b7f455243373231204552524f523a20546f6b656e20616c7265616479206d696e7460008201527f6564000000000000000000000000000000000000000000000000000000000000602082015250565b6000610beb602283610a80565b9150610bf682610b8f565b604082019050919050565b60006020820190508181036000830152610c1a81610bde565b9050919050565b7f4e487b7100000000000000000000000000000000000000000000000000000000600052601160045260246000fd5b6000610c5b82610749565b9150610c6683610749565b9250827fffffffffffffffffffffffffffffffffffffffffffffffffffffffffffffffff03821115610c9b57610c9a610c21565b5b828201905092915050565b600081519050919050565b600082825260208201905092915050565b60005b83811015610ce0578082015181840152602081019050610cc5565b83811115610cef576000848401525b50505050565b6000610d0082610ca6565b610d0a8185610cb1565b9350610d1a818560208601610cc2565b610d238161083e565b840191505092915050565b6000608082019050610d4360008301876107de565b610d5060208301866107de565b610d5d6040830185610a16565b8181036060830152610d6f8184610cf5565b905095945050505050565b600081519050610d89816106ba565b92915050565b600060208284031215610da557610da4610684565b5b6000610db384828501610d7a565b91505092915050565b7f4552433732313a207472616e7366657220746f206e6f6e20455243373231526560008201527f63656976657220696d706c656d656e7465720000000000000000000000000000602082015250565b6000610e18603283610a80565b9150610e2382610dbc565b604082019050919050565b60006020820190508181036000830152610e4781610e0b565b905091905056fea26469706673582212200c4cb07ac8b391db12093a4281f2fcf976beb3648d6951c67fad154933787f5264736f6c634300080b0033",
  "immutableReferences": {},
  "source": "//SPDX-License-Identifier: MIT\r\npragma solidity ^0.8.10;\r\n\r\nimport  \"./ERC165.sol\";\r\nimport  \"./IERC721.sol\"; \r\nimport  \"./IERC721Receiver.sol\"; \r\n\r\n\r\ncontract ERC721 is ERC165, IERC721 \r\n{\r\n    //address propietaria del token, int256 es el identificador nico del token\r\n    mapping(uint256 => address) private _owners;\r\n    //cuantos tokens tiene la direccion\r\n    mapping(address => uint256) private _balances;\r\n    //a traves de un id, y devuelve la direccion del owner\r\n    // mapping(uint256 => address) private _tokenApprovals;\r\n    // mapping(address => mapping(address => bool)) private _operatorApprovals;\r\n      \r\n    function ownerOf (uint256 tokenId) public view virtual override returns (address)\r\n    {\r\n        address owner = _owners[tokenId];\r\n        require (owner != address(0), \"Token id does not exist\");\r\n        return owner;\r\n    } \r\n  \r\n    function balanceOf (address owner) public view returns  (uint256 balance)\r\n    {\r\n        return _balances[owner];\r\n    }\r\n\r\n    function _safeMint (address to, uint256 tokenId) public \r\n    {\r\n        _safeMint (to,tokenId, \"\");\r\n    } \r\n\r\n    function _safeMint (address  to, uint256 tokenId, bytes memory _data) public \r\n    {\r\n        _mint(to, tokenId);\r\n        require(_checkOnERC721Received(address(0), to, tokenId, _data));\r\n    }\r\n\r\n    function _mint(address to, uint256 tokenId) internal virtual \r\n    {\r\n        require(to != address(0), \"ERC721 ERROR: mint to the zero address\");\r\n        require (!_exists(tokenId), \"ERC721 ERROR: Token already minted\");\r\n        //require (msg.sender == owner, \"ERC721 ERROR: Not authorized \");\r\n\r\n       // _beforeTokenTransfer(address(0), to, tokenId);\r\n\r\n        _balances[to]+=1;\r\n        _owners[tokenId] = to;\r\n\r\n        emit Transfer(address(0), to, tokenId);\r\n    }\r\n   \r\n    function _exists(uint256 tokenId) internal view virtual returns (bool)\r\n    {\r\n        return _owners[tokenId]!= address(0); //devuelve true si ya existe\r\n    }\r\n\r\n    function _checkOnERC721Received(address from, address to, uint256 tokenId, bytes memory _data) private returns (bool) \r\n    {\r\n        if (isContract(to)) \r\n        {\r\n            try IERC721Receiver(to).onERC721Received(msg.sender, from, tokenId, _data) returns (bytes4 retval) {\r\n                return retval == IERC721Receiver.onERC721Received.selector;\r\n            } catch (bytes memory reason) {\r\n                if (reason.length == 0) {\r\n                    revert(\"ERC721: transfer to non ERC721Receiver implementer\");\r\n                } else {\r\n                    assembly {\r\n                        revert(add(32, reason), mload(reason))\r\n                    }\r\n                }\r\n            }\r\n        } \r\n        else \r\n        {\r\n            return true;\r\n        }\r\n    }\r\n\r\n    function isContract(address _addr) private view returns (bool)\r\n    {\r\n        uint32 size;\r\n        assembly \r\n        {\r\n            size := extcodesize(_addr)\r\n        }\r\n        return (size>0);\r\n    }\r\n\r\n\r\n\r\n     \r\n}",
  "sourcePath": "C:\\Users\\ylguillen\\Desktop\\PruebasDApp\\contracts\\ERC721.sol",
  "compiler": {
    "name": "solc",
    "version": "0.8.11+commit.d7f03943.Emscripten.clang"
  },
  "schemaVersion": "3.4.4",
  "updatedAt": "2022-04-03T19:54:57.475Z",
  "devdoc": {
    "kind": "dev",
    "methods": {},
    "version": 1
  },
  "userdoc": {
    "kind": "user",
    "methods": {},
    "version": 1
  }
}