{
  "contractName": "Plot",
  "abi": [
    {
      "inputs": [
        {
          "internalType": "uint256",
          "name": "maxheight",
          "type": "uint256"
        },
        {
          "internalType": "uint256",
          "name": "minheight",
          "type": "uint256"
        },
        {
          "internalType": "uint256",
          "name": "id",
          "type": "uint256"
        },
        {
          "internalType": "string",
          "name": "_pesticide",
          "type": "string"
        }
      ],
      "stateMutability": "nonpayable",
      "type": "constructor"
    },
    {
      "anonymous": false,
      "inputs": [
        {
          "indexed": true,
          "internalType": "address",
          "name": "from",
          "type": "address"
        },
        {
          "indexed": true,
          "internalType": "address",
          "name": "to",
          "type": "address"
        },
        {
          "indexed": true,
          "internalType": "uint256",
          "name": "tokenId",
          "type": "uint256"
        }
      ],
      "name": "Transfer",
      "type": "event"
    },
    {
      "inputs": [
        {
          "internalType": "address",
          "name": "to",
          "type": "address"
        },
        {
          "internalType": "uint256",
          "name": "tokenId",
          "type": "uint256"
        },
        {
          "internalType": "bytes",
          "name": "_data",
          "type": "bytes"
        }
      ],
      "name": "_safeMint",
      "outputs": [],
      "stateMutability": "nonpayable",
      "type": "function"
    },
    {
      "inputs": [
        {
          "internalType": "address",
          "name": "to",
          "type": "address"
        },
        {
          "internalType": "uint256",
          "name": "tokenId",
          "type": "uint256"
        }
      ],
      "name": "_safeMint",
      "outputs": [],
      "stateMutability": "nonpayable",
      "type": "function"
    },
    {
      "inputs": [
        {
          "internalType": "address",
          "name": "owner",
          "type": "address"
        }
      ],
      "name": "balanceOf",
      "outputs": [
        {
          "internalType": "uint256",
          "name": "balance",
          "type": "uint256"
        }
      ],
      "stateMutability": "view",
      "type": "function"
    },
    {
      "inputs": [],
      "name": "id_plot",
      "outputs": [
        {
          "internalType": "uint256",
          "name": "",
          "type": "uint256"
        }
      ],
      "stateMutability": "view",
      "type": "function"
    },
    {
      "inputs": [],
      "name": "max_height",
      "outputs": [
        {
          "internalType": "uint256",
          "name": "",
          "type": "uint256"
        }
      ],
      "stateMutability": "view",
      "type": "function"
    },
    {
      "inputs": [],
      "name": "min_height",
      "outputs": [
        {
          "internalType": "uint256",
          "name": "",
          "type": "uint256"
        }
      ],
      "stateMutability": "view",
      "type": "function"
    },
    {
      "inputs": [],
      "name": "owner",
      "outputs": [
        {
          "internalType": "address",
          "name": "",
          "type": "address"
        }
      ],
      "stateMutability": "view",
      "type": "function"
    },
    {
      "inputs": [
        {
          "internalType": "uint256",
          "name": "tokenId",
          "type": "uint256"
        }
      ],
      "name": "ownerOf",
      "outputs": [
        {
          "internalType": "address",
          "name": "",
          "type": "address"
        }
      ],
      "stateMutability": "view",
      "type": "function"
    },
    {
      "inputs": [],
      "name": "pesticide",
      "outputs": [
        {
          "internalType": "string",
          "name": "",
          "type": "string"
        }
      ],
      "stateMutability": "view",
      "type": "function"
    },
    {
      "inputs": [
        {
          "internalType": "bytes4",
          "name": "interfaceId",
          "type": "bytes4"
        }
      ],
      "name": "supportsInterface",
      "outputs": [
        {
          "internalType": "bool",
          "name": "",
          "type": "bool"
        }
      ],
      "stateMutability": "view",
      "type": "function"
    },
    {
      "inputs": [
        {
          "internalType": "address",
          "name": "to",
          "type": "address"
        },
        {
          "internalType": "uint256",
          "name": "tokenId",
          "type": "uint256"
        }
      ],
      "name": "_mintPlot",
      "outputs": [],
      "stateMutability": "nonpayable",
      "type": "function"
    },
    {
      "inputs": [],
      "name": "getMaxHeight",
      "outputs": [
        {
          "internalType": "uint256",
          "name": "",
          "type": "uint256"
        }
      ],
      "stateMutability": "view",
      "type": "function"
    },
    {
      "inputs": [],
      "name": "getMinHeight",
      "outputs": [
        {
          "internalType": "uint256",
          "name": "",
          "type": "uint256"
        }
      ],
      "stateMutability": "view",
      "type": "function"
    },
    {
      "inputs": [],
      "name": "getAtendido",
      "outputs": [
        {
          "internalType": "bool",
          "name": "",
          "type": "bool"
        }
      ],
      "stateMutability": "view",
      "type": "function"
    },
    {
      "inputs": [
        {
          "internalType": "bool",
          "name": "estado",
          "type": "bool"
        }
      ],
      "name": "setAtendido",
      "outputs": [],
      "stateMutability": "nonpayable",
      "type": "function"
    }
  ],
  "bytecode": "0x60806040523480156200001157600080fd5b50604051620016df380380620016df833981810160405281019062000037919062000353565b836003819055508260048190555033600560006101000a81548173ffffffffffffffffffffffffffffffffffffffff021916908373ffffffffffffffffffffffffffffffffffffffff160217905550816002819055508060069080519060200190620000a5929190620000cb565b506000600760006101000a81548160ff0219169083151502179055505050505062000449565b828054620000d99062000413565b90600052602060002090601f016020900481019282620000fd576000855562000149565b82601f106200011857805160ff191683800117855562000149565b8280016001018555821562000149579182015b82811115620001485782518255916020019190600101906200012b565b5b5090506200015891906200015c565b5090565b5b80821115620001775760008160009055506001016200015d565b5090565b6000604051905090565b600080fd5b600080fd5b6000819050919050565b620001a4816200018f565b8114620001b057600080fd5b50565b600081519050620001c48162000199565b92915050565b600080fd5b600080fd5b6000601f19601f8301169050919050565b7f4e487b7100000000000000000000000000000000000000000000000000000000600052604160045260246000fd5b6200021f82620001d4565b810181811067ffffffffffffffff82111715620002415762000240620001e5565b5b80604052505050565b6000620002566200017b565b905062000264828262000214565b919050565b600067ffffffffffffffff821115620002875762000286620001e5565b5b6200029282620001d4565b9050602081019050919050565b60005b83811015620002bf578082015181840152602081019050620002a2565b83811115620002cf576000848401525b50505050565b6000620002ec620002e68462000269565b6200024a565b9050828152602081018484840111156200030b576200030a620001cf565b5b620003188482856200029f565b509392505050565b600082601f830112620003385762000337620001ca565b5b81516200034a848260208601620002d5565b91505092915050565b6000806000806080858703121562000370576200036f62000185565b5b60006200038087828801620001b3565b94505060206200039387828801620001b3565b9350506040620003a687828801620001b3565b925050606085015167ffffffffffffffff811115620003ca57620003c96200018a565b5b620003d88782880162000320565b91505092959194509250565b7f4e487b7100000000000000000000000000000000000000000000000000000000600052602260045260246000fd5b600060028204905060018216806200042c57607f821691505b60208210811415620004435762000442620003e4565b5b50919050565b61128680620004596000396000f3fe608060405234801561001057600080fd5b50600436106100f55760003560e01c80636352211e116100975780637cf6b53b116100665780637cf6b53b146102745780638da5cb5b14610292578063b3e1c718146102b0578063cf22b577146102cc576100f5565b80636352211e146101dc5780636a4f832b1461020c57806370a08231146102285780637194c2e814610258576100f5565b80633fbaa475116100d35780633fbaa4751461016657806349befa85146101845780634a627aeb146101a25780635ee1773d146101be576100f5565b806301ffc9a7146100fa57806323b1ff001461012a57806332b9399614610148575b600080fd5b610114600480360381019061010f91906109c8565b6102ea565b6040516101219190610a10565b60405180910390f35b610132610354565b60405161013f9190610ac4565b60405180910390f35b6101506103e2565b60405161015d9190610aff565b60405180910390f35b61016e6103e8565b60405161017b9190610aff565b60405180910390f35b61018c6103ee565b6040516101999190610aff565b60405180910390f35b6101bc60048036038101906101b79190610b46565b6103f8565b005b6101c6610415565b6040516101d39190610aff565b60405180910390f35b6101f660048036038101906101f19190610b9f565b61041b565b6040516102039190610c0d565b60405180910390f35b61022660048036038101906102219190610d89565b6104cc565b005b610242600480360381019061023d9190610df8565b6104f1565b60405161024f9190610aff565b60405180910390f35b610272600480360381019061026d9190610e25565b61053a565b005b61027c610548565b6040516102899190610a10565b60405180910390f35b61029a61055f565b6040516102a79190610c0d565b60405180910390f35b6102ca60048036038101906102c59190610e25565b610585565b005b6102d46105a3565b6040516102e19190610aff565b60405180910390f35b60007f01ffc9a7000000000000000000000000000000000000000000000000000000007bffffffffffffffffffffffffffffffffffffffffffffffffffffffff1916827bffffffffffffffffffffffffffffffffffffffffffffffffffffffff1916149050919050565b6006805461036190610e94565b80601f016020809104026020016040519081016040528092919081815260200182805461038d90610e94565b80156103da5780601f106103af576101008083540402835291602001916103da565b820191906000526020600020905b8154815290600101906020018083116103bd57829003601f168201915b505050505081565b60045481565b60035481565b6000600454905090565b80600760006101000a81548160ff02191690831515021790555050565b60025481565b60008060008084815260200190815260200160002060009054906101000a900473ffffffffffffffffffffffffffffffffffffffff169050600073ffffffffffffffffffffffffffffffffffffffff168173ffffffffffffffffffffffffffffffffffffffff1614156104c3576040517f08c379a00000000000000000000000000000000000000000000000000000000081526004016104ba90610f12565b60405180910390fd5b80915050919050565b6104d683836105ad565b6104e3600084848461076d565b6104ec57600080fd5b505050565b6000600160008373ffffffffffffffffffffffffffffffffffffffff1673ffffffffffffffffffffffffffffffffffffffff168152602001908152602001600020549050919050565b6105448282610585565b5050565b6000600760009054906101000a900460ff16905090565b600560009054906101000a900473ffffffffffffffffffffffffffffffffffffffff1681565b61059f8282604051806020016040528060008152506104cc565b5050565b6000600354905090565b600073ffffffffffffffffffffffffffffffffffffffff168273ffffffffffffffffffffffffffffffffffffffff16141561061d576040517f08c379a000000000000000000000000000000000000000000000000000000000815260040161061490610fa4565b60405180910390fd5b610626816108d8565b15610666576040517f08c379a000000000000000000000000000000000000000000000000000000000815260040161065d90611036565b60405180910390fd5b60018060008473ffffffffffffffffffffffffffffffffffffffff1673ffffffffffffffffffffffffffffffffffffffff16815260200190815260200160002060008282546106b59190611085565b925050819055508160008083815260200190815260200160002060006101000a81548173ffffffffffffffffffffffffffffffffffffffff021916908373ffffffffffffffffffffffffffffffffffffffff160217905550808273ffffffffffffffffffffffffffffffffffffffff16600073ffffffffffffffffffffffffffffffffffffffff167fddf252ad1be2c89b69c2b068fc378daa952ba7f163c4a11628f55a4df523b3ef60405160405180910390a45050565b600061077884610943565b156108cb578373ffffffffffffffffffffffffffffffffffffffff1663150b7a02338786866040518563ffffffff1660e01b81526004016107bc9493929190611130565b6020604051808303816000875af19250505080156107f857506040513d601f19601f820116820180604052508101906107f59190611191565b60015b61087b573d8060008114610828576040519150601f19603f3d011682016040523d82523d6000602084013e61082d565b606091505b50600081511415610873576040517f08c379a000000000000000000000000000000000000000000000000000000000815260040161086a90611230565b60405180910390fd5b805181602001fd5b63150b7a0260e01b7bffffffffffffffffffffffffffffffffffffffffffffffffffffffff1916817bffffffffffffffffffffffffffffffffffffffffffffffffffffffff1916149150506108d0565b600190505b949350505050565b60008073ffffffffffffffffffffffffffffffffffffffff1660008084815260200190815260200160002060009054906101000a900473ffffffffffffffffffffffffffffffffffffffff1673ffffffffffffffffffffffffffffffffffffffff1614159050919050565b600080823b905060008163ffffffff1611915050919050565b6000604051905090565b600080fd5b600080fd5b60007fffffffff0000000000000000000000000000000000000000000000000000000082169050919050565b6109a581610970565b81146109b057600080fd5b50565b6000813590506109c28161099c565b92915050565b6000602082840312156109de576109dd610966565b5b60006109ec848285016109b3565b91505092915050565b60008115159050919050565b610a0a816109f5565b82525050565b6000602082019050610a256000830184610a01565b92915050565b600081519050919050565b600082825260208201905092915050565b60005b83811015610a65578082015181840152602081019050610a4a565b83811115610a74576000848401525b50505050565b6000601f19601f8301169050919050565b6000610a9682610a2b565b610aa08185610a36565b9350610ab0818560208601610a47565b610ab981610a7a565b840191505092915050565b60006020820190508181036000830152610ade8184610a8b565b905092915050565b6000819050919050565b610af981610ae6565b82525050565b6000602082019050610b146000830184610af0565b92915050565b610b23816109f5565b8114610b2e57600080fd5b50565b600081359050610b4081610b1a565b92915050565b600060208284031215610b5c57610b5b610966565b5b6000610b6a84828501610b31565b91505092915050565b610b7c81610ae6565b8114610b8757600080fd5b50565b600081359050610b9981610b73565b92915050565b600060208284031215610bb557610bb4610966565b5b6000610bc384828501610b8a565b91505092915050565b600073ffffffffffffffffffffffffffffffffffffffff82169050919050565b6000610bf782610bcc565b9050919050565b610c0781610bec565b82525050565b6000602082019050610c226000830184610bfe565b92915050565b610c3181610bec565b8114610c3c57600080fd5b50565b600081359050610c4e81610c28565b92915050565b600080fd5b600080fd5b7f4e487b7100000000000000000000000000000000000000000000000000000000600052604160045260246000fd5b610c9682610a7a565b810181811067ffffffffffffffff82111715610cb557610cb4610c5e565b5b80604052505050565b6000610cc861095c565b9050610cd48282610c8d565b919050565b600067ffffffffffffffff821115610cf457610cf3610c5e565b5b610cfd82610a7a565b9050602081019050919050565b82818337600083830152505050565b6000610d2c610d2784610cd9565b610cbe565b905082815260208101848484011115610d4857610d47610c59565b5b610d53848285610d0a565b509392505050565b600082601f830112610d7057610d6f610c54565b5b8135610d80848260208601610d19565b91505092915050565b600080600060608486031215610da257610da1610966565b5b6000610db086828701610c3f565b9350506020610dc186828701610b8a565b925050604084013567ffffffffffffffff811115610de257610de161096b565b5b610dee86828701610d5b565b9150509250925092565b600060208284031215610e0e57610e0d610966565b5b6000610e1c84828501610c3f565b91505092915050565b60008060408385031215610e3c57610e3b610966565b5b6000610e4a85828601610c3f565b9250506020610e5b85828601610b8a565b9150509250929050565b7f4e487b7100000000000000000000000000000000000000000000000000000000600052602260045260246000fd5b60006002820490506001821680610eac57607f821691505b60208210811415610ec057610ebf610e65565b5b50919050565b7f546f6b656e20696420646f6573206e6f74206578697374000000000000000000600082015250565b6000610efc601783610a36565b9150610f0782610ec6565b602082019050919050565b60006020820190508181036000830152610f2b81610eef565b9050919050565b7f455243373231204552524f523a206d696e7420746f20746865207a65726f206160008201527f6464726573730000000000000000000000000000000000000000000000000000602082015250565b6000610f8e602683610a36565b9150610f9982610f32565b604082019050919050565b60006020820190508181036000830152610fbd81610f81565b9050919050565b7f455243373231204552524f523a20546f6b656e20616c7265616479206d696e7460008201527f6564000000000000000000000000000000000000000000000000000000000000602082015250565b6000611020602283610a36565b915061102b82610fc4565b604082019050919050565b6000602082019050818103600083015261104f81611013565b9050919050565b7f4e487b7100000000000000000000000000000000000000000000000000000000600052601160045260246000fd5b600061109082610ae6565b915061109b83610ae6565b9250827fffffffffffffffffffffffffffffffffffffffffffffffffffffffffffffffff038211156110d0576110cf611056565b5b828201905092915050565b600081519050919050565b600082825260208201905092915050565b6000611102826110db565b61110c81856110e6565b935061111c818560208601610a47565b61112581610a7a565b840191505092915050565b60006080820190506111456000830187610bfe565b6111526020830186610bfe565b61115f6040830185610af0565b818103606083015261117181846110f7565b905095945050505050565b60008151905061118b8161099c565b92915050565b6000602082840312156111a7576111a6610966565b5b60006111b58482850161117c565b91505092915050565b7f4552433732313a207472616e7366657220746f206e6f6e20455243373231526560008201527f63656976657220696d706c656d656e7465720000000000000000000000000000602082015250565b600061121a603283610a36565b9150611225826111be565b604082019050919050565b600060208201905081810360008301526112498161120d565b905091905056fea26469706673582212200c61bd8ee50fde4044a2fe3c35c029331d387daadb08163706529bc2056da4f564736f6c634300080b0033",
  "immutableReferences": {},
  "source": "//SPDX-License-Identifier: MIT\r\npragma solidity ^0.8.10;\r\n\r\nimport  \"./ERC721.sol\";\r\nimport  \"./ERC20.sol\";\r\n\r\ncontract Plot is ERC721 \r\n{\r\n    uint256 public id_plot;\r\n    uint256 public max_height;\r\n    uint256 public min_height;\r\n    address public owner;\r\n    string public pesticide;\r\n\r\n    bool atendido;\r\n\r\n\r\n    constructor (uint256 maxheight, uint256 minheight, uint256 id, string memory _pesticide) \r\n    {\r\n        max_height = maxheight;\r\n        min_height = minheight;\r\n        owner = msg.sender;\r\n        id_plot = id;\r\n        pesticide = _pesticide;\r\n        atendido = false;\r\n\r\n    }\r\n\r\n    function _mintPlot(address to, uint256 tokenId) public \r\n    {\r\n        //identificador unico ascendente\r\n        ERC721._safeMint(to, tokenId);\r\n    }\r\n    \r\n    /****************************************************/\r\n    function getMaxHeight()  public view returns (uint256)\r\n    {\r\n        return max_height;\r\n    } \r\n\r\n    function getMinHeight()  public view returns (uint256)\r\n    {\r\n        return min_height;\r\n    }\r\n\r\n    function getAtendido() public view returns(bool)\r\n    {\r\n        return atendido;\r\n    }\r\n    function setAtendido(bool estado) public  \r\n    {\r\n         atendido=estado;\r\n    }\r\n}",
  "sourcePath": "C:\\Users\\ylguillen\\Desktop\\PruebasDApp\\contracts\\Plot.sol",
  "compiler": {
    "name": "solc",
    "version": "0.8.11+commit.d7f03943.Emscripten.clang"
  },
  "schemaVersion": "3.4.4",
  "updatedAt": "2022-04-03T19:54:57.555Z",
  "devdoc": {
    "kind": "dev",
    "methods": {},
    "version": 1
  },
  "userdoc": {
    "kind": "user",
    "methods": {},
    "version": 1
  }
}